:020000040800F2
:1000000060070020110B0008050300080703000823
:100010000B0300080F030008130300080000000092
:1000200000000000000000000000000017030008AE
:1000300019030008000000001B0300081D0300084E
:100040002B0B00082B0B00082B0B00082B0B0008B8
:100050002B0B00082B0B00082B0B00082B0B0008A8
:100060002B0B00082B0B00082B0B00082B0B000898
:100070002B0B00082B0B00082B0B00082B0B000888
:100080002B0B00082B0B00082B0B00082B0B000878
:100090002B0B00082B0B00082B0B00082B0B000868
:1000A0002B0B00082B0B00082B0B00082B0B000858
:1000B0002B0B00082B0B00082B0B00082B0B000848
:1000C0002B0B00082B0B00082B0B00082B0B000838
:1000D0002B0B0008812900082B0B00082B0B0008B4
:1000E0002B0B00082B0B00082B0B00082B0B000818
:1000F0002B0B00082B0B00082B0B00082B0B000808
:100100002B0B00082B0B00082B0B00082B0B0008F7
:100110002B0B00082B0B00082B0B00082B0B0008E7
:100120002B0B00082B0B00082B0B00082B0B0008D7
:100130002B0B00082B0B00082B0B00082B0B0008C7
:100140002B0B00082B0B00082B0B00082B0B0008B7
:100150002B0B00082B0B00082B0B00082B0B0008A7
:100160002B0B00082B0B00082B0B00082B0B000897
:100170002B0B00082B0B00082B0B00082B0B000887
:100180002B0B00082B0B000800F002F800F041F8E0
:100190000AA090E8000C82448344AAF10107DA45E2
:1001A00001D100F036F8AFF2090EBAE80F0013F0F3
:1001B000010F18BFFB1A43F001031847CC2A0000B7
:1001C000EC2A0000103A24BF78C878C1FAD8520748
:1001D00024BF30C830C144BF04680C6070470000C1
:1001E0000023002400250026103A28BF78C1FBD840
:1001F000520728BF30C148BF0B607047642902F026
:100200004784002070471FB502F038FD1FBD10B5B0
:1002100010BD02F003FD1146FFF7F5FF00F026F8D0
:1002200002F021FD03B4FFF7F2FF03BC02F048FB2C
:1002300070B505460C46012C04D129462D4801F025
:10024000DCFC05E0022C03D129462A4801F0D7FC4A
:1002500070BD70B504460D4640F6C410844200DD02
:10026000044629462046FFF7E3FF70BD4FF4FA74B9
:10027000002600254FF4E13002F030FBA82002F008
:100280009DFA4FF416625421E00000F03BFB00F0B1
:100290001FFC0020184908602BE0B4F5FA7F00D15C
:1002A000012640F6C410844200D100260EB10A3463
:1002B00000E00A3CA0B20121FFF7CBFFA0B202216F
:1002C000FFF7C7FF21460DA002F0A2FB322002F08B
:1002D000D7FA6D1C0A2D0CD107480068C0430849A5
:1002E000C1F8A0020846D0F8A402C043C1F8A40295
:1002F0000025D2E700180040A082424225640A008F
:1003000000804242704700BFFEE700BFFEE700BF2B
:10031000FEE700BFFEE77047704770477047000078
:100320000CB50020019000907648006840F48030C1
:100330007449086000BF7348006800F40030009002
:100340000198401C0190009818B90198B0F5A04F91
:10035000F1D16C48006800F4003010B10120009029
:1003600001E0002000900098012846D16548403007
:10037000006840F08050634940310860624800687E
:1003800040F44040604908605E48083000685D49BC
:10039000083108600846006840F4004008600846DC
:1003A000006840F4A05008605848091F0860081F02
:1003B000006840F08070091F086000BF5148006865
:1003C00000F000700028F9D040F205705049086034
:1003D0004C480830006820F003004A4908310860A2
:1003E0000846006840F00200086000BF4548083039
:1003F000006800F00C000828F8D10CBD10B5454885
:10040000006840F47000434908603E48006840F0CE
:1004100001003C49086000203A4908310860394829
:1004200000683D490840374908603C48091D08609C
:10043000081F006820F48020091F0860002031494F
:100440000C310860FFF76CFF4FF0006031498039D4
:10045000086010BD70B50020002202230024022194
:10046000284D08352D6805F00C0020B1042806D071
:10047000082834D107E02A4D2A4E356033E02A4D52
:10048000284E35602FE01F4D2D1D2D68C5F380547B
:100490001C4D2D1D2D6805F03F0154B1224DB5FBBB
:1004A000F1F5184E361D3668C6F3881605FB06F2C0
:1004B00009E01B4DB5FBF1F5124E361D3668C6F34B
:1004C000881605FB06F20F4D2D1D2D68C5F301455D
:1004D0006D1C6B00B2FBF3F5124E356003E0104D5E
:1004E000104E356000BF00BF064D08352D68C5F3BE
:1004F00003150E4E705D0B4D2D68C540094E3560DD
:1005000070BD0000003802400070004008544007F1
:10051000003C024088ED00E0FFFFF6FE10300024B2
:100520000024F4000000002000127A0004000020E3
:100530002DE9FC4105460E462F46072F2FD2DFE856
:1005400007F0040A10161C222800BA4C01210846A4
:1005500000F01AFF23E0B84C0121022000F014FF44
:100560001DE0B64C0121042000F00EFF17E0B44C52
:100570000121082000F008FF11E0B24C01211020F9
:1005800000F002FF0BE0B04C0121202000F0FCFE47
:1005900005E0AE4C0121402000F0F6FE00BF00BF98
:1005A00001208DF8040000208DF80600009601203F
:1005B0008DF8070003208DF80500B1B2204600F049
:1005C000C1FC6946204600F041FCBDE8FC812DE9F4
:1005D000FC4705460E461746B946A846B8F1070F30
:1005E0002FD2DFE808F0040A10161C222800914CD4
:1005F0000121084600F0C8FE23E08F4C01210220B3
:1006000000F0C2FE1DE08D4C0121042000F0BCFE74
:1006100017E08B4C0121082000F0B6FE11E0894C58
:100620000121102000F0B0FE0BE0874C01212020BA
:1006300000F0AAFE05E0854C0121402000F0A4FE58
:1006400000BF00BF00208DF804000096B9F1000F34
:1006500003D001208DF8070002E002208DF807008A
:1006600003208DF805006946204600F0EFFBBDE849
:10067000FC872DE9FE4F81460F4616469846DDF869
:1006800030A02EB1002239464846FFF7A0FF04E013
:10069000012239464846FFF79AFF0121880300F0FE
:1006A000CDFEB7F5807F63D012DC102F44D008DC7C
:1006B000012F25D0022F2AD0042F2FD0082F25D18B
:1006C00033E0202F3FD0402F44D0802FF7D148E097
:1006D000B7F5805F6CD009DCB7F5007F50D0B7F577
:1006E000806F55D0B7F5006FE9D159E0B7F5005FDD
:1006F00066D0B7F5804F6BD0B7F5004F78D16FE07B
:100700000021484600F0A5FF0124062570E00121E4
:10071000484600F09EFF0224072569E00221484672
:1007200000F097FF0424082562E00321484600F00A
:1007300090FF082409255BE00421484600F089FF6A
:1007400010240A2554E00521484600F082FF2024A9
:1007500017254DE00621484600F07BFF4024172571
:1007600046E00721484600F074FF802417253FE04B
:100770000821484600F06DFF4FF48074172537E0DC
:100780000921484600F065FF4FF4007417252FE05B
:100790000A21484600F05DFF4FF48064282527E0D9
:1007A0000B21484600F055FF4FF4006428251FE058
:1007B0000C21484600F04DFF4FF48054282517E0E7
:1007C0000D21484600F045FF4FF4005428250FE066
:1007D0000E21484600F03DFF4FF48044282507E0F5
:1007E0000F21484600F035FF4FF40044282500BF94
:1007F00000BF019401208DF80A0000208DF8080048
:100800001EB108208DF8090002E00C208DF80900C7
:1008100001A800F01BFA8DF8005001208DF80300AC
:100820008DF801808DF802A0684600F096F9BDE8C9
:10083000FE8F000000000240000402400008024059
:10084000000C024000100240001402400018024058
:1008500070B58AB004460D4616460121102000F0FE
:1008600093FD03220521944800F07BFB032206211F
:10087000914800F076FB02208DF8240000208DF8CE
:1008800026006020089001208DF8270003208DF8B5
:10089000250008A9884800F0D9FA0121080400F0D1
:1008A000CDFD864804800020ADF81C00ADF8160090
:1008B000601E0690681E80B2ADF8140005A980483D
:1008C00000F0ADFF6020ADF800000020ADF80C0096
:1008D0000120ADF8020002966946794801F034F82B
:1008E0006946774801F069F80121754801F0B9F9C6
:1008F0000121734800F0FEFF0121714801F018F852
:100900000AB070BD70B58AB004460D461646012186
:10091000022000F039FD09220E216A4800F021FB77
:1009200009220F21674800F01CFB02208DF82400EB
:1009300000208DF826004FF44040089001208DF8EB
:10094000270003208DF8250008A95E4800F07EFAF4
:100950000121402000F061FD5B4804800020ADF8DB
:100960001C00ADF81600601E0690681E80B2ADF83F
:10097000140005A9554800F052FF6020ADF80000B2
:100980000020ADF80C000120ADF802000296694687
:100990004E4800F0D9FF69464C4801F00EF801219D
:1009A0004A4801F05EF90121484801F063F901214C
:1009B000464800F09FFF0121444800F0B9FF0AB00B
:1009C00070BD70B505460C4600263C480088401EA8
:1009D0006843642190FBF1F086B2012C04D13146CA
:1009E000374801F00AF905E0022C03D131463448BA
:1009F00001F005F970BD70B505460C460026324879
:100A00000088401E6843642190FBF1F086B2012CFF
:100A100004D131462D4801F0F0F805E0022C03D155
:100A200031462A4801F0EBF870BD70B504460D461A
:100A30001646611E224800F03DFF204804802EB17A
:100A4000681E81B200221E4800F026FF70BD70B5FE
:100A500004460D461646611E1C4800F02BFF1A483E
:100A600004802EB1681E81B20022184800F014FFE5
:100A700070BD70B505460C46012C04D129461048BE
:100A800001F0BBF805E0022C03D129460C4801F027
:100A9000B6F870BD70B505460C46012C04D1294648
:100AA0000A4801F0AAF805E0022C03D129460748BC
:100AB00001F0A5F870BD00000010024014000020F5
:100AC00000400140000402401600002000180040D1
:100AD00010B54FF480710520FFF72AFD4FF4007127
:100AE0000520FFF725FD10BD10B5002300220346A9
:100AF0000A4613B1012B07D102E0044C226003E047
:100B0000024C241D226000BF00BF10BDA0824242E3
:100B10000948804709480047FEE7FEE7FEE7FEE791
:100B2000FEE7FEE7FEE7FEE7FEE7FEE704480549CD
:100B3000054A064B70470000FD03000889010008C4
:100B40006001002060070020600300206003002097
:100B500032490143324A1160704770B500210023C9
:100B60000F22C4781CB32E4C246804F4E064C4F54E
:100B7000E064C4F30721C1F10404E3B20A414478FC
:100B80009C40E1B28478144021430C07210E254C8F
:100B900005786155047804F01F050124AC40057800
:100BA0006D11AD0005F1E025C5F8004109E00478BC
:100BB00004F01F050124AC401B4D0678761145F862
:100BC000264070BD194A0A400243154B1B1F1A608C
:100BD000704739B1124A121D12680243104B1B1D97
:100BE0001A6006E00E4A121D126882430C4B1B1D50
:100BF0001A607047042808D14FF0E021096941F0DC
:100C000004014FF0E022116107E04FF0E021096993
:100C100021F004014FF0E022116170470000FA0555
:100C20000CED00E000E400E080E100E080FFFF1F49
:100C3000002041490860091D0860091D0860091D60
:100C400008603E483C4914310860704700213A4929
:100C50008279002A3AD00A46126803689A430B4602
:100C60001A600A1D126803689A430B1D1A60027904
:100C700011440A6803681A430A602F4A083212684E
:100C800003689A432C4B08331A601A1D12680368D4
:100C90009A43294B0C331A604279102A0ED11A1F3D
:100CA000126803681A43244B08331A601A1D12682D
:100CB00003681A43204B0C331A600DE01E49427939
:100CC00011440A6803681A430A6005E00279114476
:100CD0000A6803689A430A60704700210160017145
:100CE0000C2141710021817170471349103109684D
:100CF0000143114A103211607047014600200E4A2C
:100D0000143212680A400AB1012000E00020704746
:100D1000094914310860704701460020064A143220
:100D200012680A400AB1012000E000207047024921
:100D30001431086070470000003C0140FFFF7F0055
:100D400010B504469848844208D10121084600F0B5
:100D500086FB0021012000F082FB76E0934884426C
:100D600008D10121022000F07AFB0021022000F0CE
:100D700076FB6AE08E48844208D10121042000F00D
:100D80006EFB0021042000F06AFB5EE0894884428B
:100D900008D10121082000F062FB0021082000F0AA
:100DA0005EFB52E08448844208D10121102000F00B
:100DB00056FB0021102000F052FB46E07F488442A1
:100DC00008D10121202000F04AFB0021202000F062
:100DD00046FB3AE07A48844208D10121402000F0E5
:100DE0003EFB0021402000F03AFB2EE07548844293
:100DF00008D10121802000F032FB0021802000F08A
:100E00002EFB22E07048844208D10121801500F0B9
:100E100026FB0021A01500F022FB16E06B4884425F
:100E200008D10121401500F01AFB0021601500F0E7
:100E300016FB0AE06648844207D10121001500F044
:100E40000EFB0021201500F00AFB10BDF0B50A468C
:100E500000210023002400BF3DE0012505FA01F335
:100E6000156805EA03049C4234D105684F00032647
:100E7000BE40B543056015794E00B5400668354360
:100E800005601579012D02D01579022D16D18568DE
:100E90004F000326BE40B543856055794E00B540EE
:100EA000866835438560456801268E40B5434560B8
:100EB000456896798E40B6B235434560C5684F00A7
:100EC0000326BE40B543C560D5794E00B540C6681F
:100ED0003543C560491C1029BFD3F0BD4FF6FF71E3
:100EE00001600021017141718171C171704708B5C4
:100EF0004FF480320092009A0A430092009AC26135
:100F0000C161009AC261C2690092C269009208BDC3
:100F10000246002013690B400BB1012000E00020C5
:100F200070470146086980B2704702460020536945
:100F30000B400BB1012000E00020704701464869DA
:100F400080B2704701837047418370470AB10183C3
:100F500000E0418370474161704742694A40426105
:100F60007047F0B5002300244D07ED0E02FA05F39B
:100F7000CE1000F1200555F826504E07F70E0F262B
:100F8000BE40B543CF1000F1200646F82750CE10E2
:100F900000F1200555F8265045EA0304CE1000F173
:100FA000200545F82640F0BD000002400004024044
:100FB00000080240000C02400010024000140240F1
:100FC00000180240001C02400020024000240240A1
:100FD00000280240F948006840F00100F749086025
:100FE0000020F64908310860F4480068F4490840D8
:100FF000F2490860F348091D0860F348EF4984315D
:101000000860F0481038091D0860EC48006820F4BA
:101010008020EA4908600020E8490C310860E7496F
:101020008C31086070470021E44A921C117011460F
:101030000870704710B501460022002300204A11B5
:10104000012A02D1DD4C236808E0022A03D1DB4CDF
:101050007034236802E0D94C7434236801F01F0215
:10106000012494401C400CB1012000E0002010BD80
:1010700038B5002000900024002500BF3120FFF784
:10108000D9FF05460098401C00900098B0F5A04F8D
:1010900001D0002DF2D03120FFF7CCFF08B10124A0
:1010A00000E00024204638BD01460020C34A1068F5
:1010B00020F0F80040EAC10010607047C3490860A2
:1010C00070470021BD4A703211701170012802D0A2
:1010D00004280AD104E00121B84A7032117005E0F9
:1010E0000521B64A7032117000E000BF00BF7047A2
:1010F000B7490860704770B5049C41EA8215012623
:10110000C6EB530645EA0645054345EA0465AB4E82
:10111000361D356070BDAD4908667047820142EAF0
:101120000172A64B84331A607047A84988667047DD
:1011300010B5830143EA016343EA02739F4C88348C
:10114000236010BDA14908677047A049C864704773
:1011500002460020994B0833186820F0EC6042EA00
:1011600001031843954B083318607047024600206E
:10117000924B0833186820F0784042EA0103184384
:101180008E4B083318607047014600208B4A0832A6
:10119000106820F00300084310607047874808304B
:1011A000006800F00C00704701460020834A0832B6
:1011B000106820F0F00008431060704701460020DE
:1011C0007E4A0832106820F4E050084310607047EF
:1011D00001460020794A0832106820F4604040EA55
:1011E000C10010607047F0B50021002200240225E4
:1011F00000260223714F08373F6807F00C0121B128
:10120000042905D0082937D105E0724F076036E080
:10121000714F076033E0694F3F1D3F68C7F3805649
:10122000664F3F1D3F6807F03F036EB16A4FB7FB43
:10123000F3F7DFF888C10CF1040CDCF800C0CCF344
:10124000881C07FB0CF40CE0624FB7FBF3F7DFF8E8
:101250006CC10CF1040CDCF800C0CCF3881C07FB5B
:101260000CF4564F3F1D3F68C7F301477F1C7D00BC
:10127000B4FBF5F7076002E0564F076000BF00BF00
:101280004E4F08373F6807F0F0010909534F7A5C69
:101290000768D7404760494F08373F6807F4E05177
:1012A000890A4E4F7A5C4768D7408760434F0837BA
:1012B0003F6807F46041490B484F7A5C4768D74064
:1012C000C760F0BD002100F44072B2F5407F0AD142
:1012D0003A4A0832116821F4F811414A0240114398
:1012E000364A08321160354A70321268C0F30B0377
:1012F0001A43324B70331A607047354944390860DD
:101300007047334940390860704736490860704774
:1013100001460020294A8C32106820F01F004A1E26
:101320001043264A8C321060704701460020234A41
:101330008C32106820F4F8504A1E40EA02201F4AFE
:101340008C3210607047014600201C4A8C321068B5
:1013500020F4401008431060704701460020174AEF
:101360008C32106820F4400008431060704701463A
:101370000020124A8C32106820F44030084310607C
:10138000704719490860704739B10C4A3032126809
:1013900002430A4B30331A6006E0084A30321268C2
:1013A0008243064B30331A607047F9B1034A343236
:1013B00012680243014B34331A601CE000380240CB
:1013C000FFFFF6EA10300024003000200000474202
:1013D000800E47420024F40000127A00180000201A
:1013E000FFFCFF0F5C014742E01147428F4A126841
:1013F00082438E4B1A60704739B18C4A121D1268B5
:1014000002438A4B1B1D1A6006E0884A121D1268AF
:101410008243864B1B1D1A60704739B1834A0C32D8
:1014200012680243814B0C331A6006E07F4A0C328B
:10143000126882437D4B0C331A60704739B17B4A86
:10144000103212680243794B10331A6006E0774A73
:10145000103212688243754B10331A60704739B1ED
:10146000724A243A12680243704B243B1A6006E029
:101470006E4A243A126882436C4B243B1A607047D0
:1014800039B16A4A203A12680243684B203B1A601D
:1014900006E0664A203A12688243644B203B1A6099
:1014A000704739B1614A1C3A126802435F4B1C3BDA
:1014B0001A6006E05D4A1C3A126882435B4B1C3B93
:1014C0001A60704739B1594A143A12680243574BAF
:1014D000143B1A6006E0554A143A12688243534B93
:1014E000143B1A60704739B1504A103A12680243EF
:1014F0004E4B103B1A6006E04C4A103A1268824389
:101500004A4B103B1A60704739B1484A1C32126886
:101510000243464B1C331A6006E0444A1C321268F0
:101520008243424B1C331A60704739B13F4A203224
:10153000126802433D4B20331A6006E03B4A2032DA
:1015400012688243394B20331A60704739B1374AE9
:10155000243212680243354B24331A6006E0334AC2
:10156000243212688243314B24331A60704739B1F8
:101570002E4A2C32126802432C4B2C331A6006E0A0
:101580002A4A2C3212688243284B2C331A60704747
:1015900039B1264A303212680243244B30331A6084
:1015A00006E0224A303212688243204B30331A6000
:1015B0007047012808D11D493C31096841F00801F4
:1015C0001A4A3C32116007E018493C31096821F0A1
:1015D0000801164A3C321160704739B1134A273A64
:1015E00012780243114B273B1A7006E00F4A273A44
:1015F000127882430D4B273B1A7070470B484030DE
:10160000006840F080700949403108607047014629
:101610000020064A283A12680A400AB1012000E078
:10162000002070470149263908707047343802405D
:1016300010B501218803FFF756FF00214FF48040C9
:10164000FFF751FF10BD1C49086070471B49086235
:10165000704730B500228B071C0F0F2303FA04F2EA
:10166000154B08338C1053F824309343124C083434
:101670008D1044F8253023468C1053F824308C0705
:10168000240F00FA04F423430B4C08348D1044F863
:10169000253030BD0949DC310860704708490860D1
:1016A0007047002004492031096801F4807109B1B4
:1016B000012000E000207047003801400000274270
:1016C0000004274210B50446FE48844208D1012197
:1016D0000846FFF708FF00210120FFF704FF9DE007
:1016E000B4F1804F08D101210846FFF7EBFE00213D
:1016F0000120FFF7E7FE91E0F348844208D1012181
:101700000220FFF7DFFE00210220FFF7DBFE85E06D
:10171000EE48844208D101210420FFF7D3FE0021C6
:101720000420FFF7CFFE79E0E948844208D1012187
:101730000820FFF7C7FE00210820FFF7C3FE6DE079
:10174000E448844208D101211020FFF7BBFE0021AC
:101750001020FFF7B7FE61E0DF48844208D1012185
:101760002020FFF7AFFE00212020FFF7ABFE55E061
:10177000DA48844208D101210220FFF7B4FE00219B
:101780000220FFF7B0FE49E0D548844209D101218B
:101790000804FFF7A8FE00214FF48030FFF7A3FEF6
:1017A0003CE0D048844209D101214804FFF79BFE68
:1017B00000214FF40030FFF796FE2FE0CA48844224
:1017C00009D101218804FFF78EFE00214FF480200B
:1017D000FFF789FE22E0C548844208D1012140205C
:1017E000FFF770FE00214020FFF76CFE16E0C048B6
:1017F000844208D101218020FFF764FE002180206F
:10180000FFF760FE0AE0BB48844207D10121801542
:10181000FFF758FE0021A015FFF754FE10BD00226F
:101820000288A84B98420ED0AC4B98420BD0B0F136
:10183000804F08D0A44B984205D0A44B984202D0C8
:10184000A34B984204D14FF68F731A404B881A432A
:10185000A04B984207D0A04B984204D04FF6FF43CC
:101860001A400B891A4302804B68C3620B880385B8
:10187000944B984202D0994B984201D18B7A0386BF
:101880000123838270474FF0FF31416000210180C6
:1018900001814180817270470185828270470A46CA
:1018A000002101884FF68F73194011430180704762
:1018B00041627047C16270470146486A70470146FD
:1018C000088D704721B1028842F00202028004E0D4
:1018D00002884FF6FD731A400280704721B10288DA
:1018E00042F00402028004E002884FF6FB731A40C3
:1018F0000280704721B1028842F08002028004E039
:1019000002884FF67F731A400280704702884FF6B4
:10191000F7731A40028002880A43028070470288E7
:101920004FF6FF431A40028002880A430280704744
:1019300021B1028842F00102028004E002884FF6E1
:10194000FE731A400280704770B500240022002305
:10195000058C4FF6FE7635400584028C8388048B17
:101960004FF68F752C40B51E2C400D882C43751EEC
:101970002A408D892A434D882A43524DA84202D0DD
:10198000564DA84213D14FF6F7752A40CD892A4308
:101990004FF6FB752A408D882A434FF6FF652B4092
:1019A0004FF6FF552B400D8A2B434D8A2B438380E6
:1019B00004838D684563028470BD70B500240022E5
:1019C0000023058C4FF6EF7635400584028C838822
:1019D000048B48F6FF752C404FF6FF452C400D88D0
:1019E0004FF6FF7606EA05252C434FF6DF752A40B1
:1019F0008D8906EA05152A434D8806EA05152A430E
:101A0000304DA84202D0354DA8421DD14FF67F750A
:101A10002A40CD894FF6FF7606EA05152A434FF690
:101A2000BF752A408D8806EA05152A434FF6FF3513
:101A30002B404FF2FF752B400D8A06EA85052B439C
:101A40004D8A06EA85052B43838004838D68856370
:101A5000028470BD70B5002400220023058C4FF66F
:101A6000FF6635400584028C8388848B4FF68F7522
:101A70002C404FF6FC752C400D882C434FF6FF553B
:101A80002A408D894FF6FF7606EA05252A434D88C0
:101A900006EA05252A430B4DA84202D00F4DA84265
:101AA00038D14FF2FF752A40CD894FF6FF7606EA0E
:101AB00005252A434FF6FF352A408D8806EA05257D
:101AC0002A4319E0000001400004004000080040E3
:101AD000000C0040001000400014004000040140D1
:101AE000004001400044014000480140001800400F
:101AF000001C0040002000404EF6FF752B404DF6C4
:101B0000FF752B400D8A06EA05152B434D8A06EA20
:101B100005152B43838084838D68C563028470BD63
:101B200070B5002200230024058C4EF6FF76354068
:101B30000584038C8488828B48F6FF752A404FF613
:101B4000FF452A400D884FF6FF7606EA05252A4311
:101B50004DF6FF752B408D8906EA05352B434D88E0
:101B600006EA05352B43FE4DA84202D0FD4DA842A2
:101B700008D14BF6FF752C400D8A4FF6FF7606EA2A
:101B800085152C43848082838D680564038470BD31
:101B9000002101804180818081608181C181018239
:101BA0004182704770B50346002000241846183063
:101BB00001258D40ACB21D8CA5431D8409B10829B7
:101BC0000AD100EB610005684FF68F76354005605D
:101BD0000568154305600FE00D1FC5F34E05284449
:101BE000056848F6FF763540056005684FF6FF76D4
:101BF00006EA02263543056070BD41637047816384
:101C00007047C1637047016470470A460021018B29
:101C10004FF68F7319401143018370470A46002124
:101C2000018B48F6FF7319404FF6FF7303EA022356
:101C30001943018370470A460021818B4FF68F7349
:101C400019401143818370470A460021818B48F671
:101C5000FF7319404FF6FF7303EA02231943818390
:101C600070470A460021018B4FF6F7731940114364
:101C7000018370470A460021018B4FF2FF73194020
:101C80004FF6FF7303EA02231943018370470A46A4
:101C90000021818B4FF6F773194011438183704700
:101CA0000A460021818B4FF2FF7319404FF6FF73F4
:101CB00003EA02231943818370470A460021018BFE
:101CC0004FF6FB7319401143018370470A46002108
:101CD000018B4FF6FF3319404FF6FF7303EA0223DF
:101CE0001943018370470A460021818B4FF6FB732D
:101CF00019401143818370470A460021818B4FF6BA
:101D0000FF3319404FF6FF7303EA0223194381831F
:101D100070470A460021018B4FF67F73194011432B
:101D2000018370470A460021018BC1F30E014FF673
:101D3000FF7303EA02231943018370470A46002117
:101D4000818B4FF67F7319401143818370470A4698
:101D50000021818BC1F30E014FF6FF7303EA0223CA
:101D60001943818370470A460021018C4FF6FD73A9
:101D700019401143018470470A460021018C4FF637
:101D8000F77319401143018470470A460021018C02
:101D90004FF6DF7319404FF6FF7303EA021319433E
:101DA000018470470A460021018C4FF67F73194069
:101DB0004FF6FF7303EA02131943018470470A4682
:101DC0000021018C4FF6FF5319404FF6FF7303EAD1
:101DD00002231943018470470A460021018C4FF207
:101DE000FF7319404FF6FF7303EA0223194301847E
:101DF00070470A460021018C4DF6FF7319404FF6DB
:101E0000FF7303EA023319430184704730B500239E
:101E100001248C40A3B2048C9C430484048C02FAF9
:101E200001F5ADB22C43048430BD30B50023042449
:101E30008C40A3B2048C9C430484048C02FA01F508
:101E4000ADB22C43048430BD828B4FF2FF331A4075
:101E50008283828B4FF6FF7303EA01231A43828346
:101E60007047F0B50C461546002100220026078C6D
:101E70004EF6FF7C07EA0C070784818B028C4FF635
:101E8000FF7707EA043640F6FF4739404FF6FF7701
:101E900007EA052739434FF6FF7707EA0337394347
:101EA00045F6FF773A4046F480573A4381830284EF
:101EB000F0BD828B4FF6F3731A408283828B0A4304
:101EC00082837047F0B50C4615460021002200269B
:101ED000078C4FF6FF6C07EA0C070784818B028C96
:101EE0004FF6FF7707EA04264FF60C7739404FF696
:101EF000FF7707EA03172F4339434FF2FF573A4062
:101F000046F480773A4381830284F0BD028B4FF21E
:101F1000FF331A400283028B4FF6FF7303EA01235B
:101F20001A4302837047F0B50C4615460021002283
:101F30000026078C4FF6EF7C07EA0C070784018B1D
:101F4000028C4FF6FF7707EA041640F6FF47394048
:101F50004FF6FF7707EA033739434FF6FF7703E081
:101F6000000001400004014007EA052739434FF60D
:101F70005F773A4046F010073A4301830284F0BD90
:101F8000028B4FF6F3731A400283028B0A430283DB
:101F90007047F0B50C46154600210022068C4FF61E
:101FA000FE773E400684018B028C4FF60C76314062
:101FB0007E1C06EA03162E4331434FF6F576324077
:101FC00044F00106324301830284F0BD70B505463A
:101FD0000C46208850B92389A28861882846FFF7DB
:101FE000D8FFE1882846FFF7CBFF25E020880428AA
:101FF0000AD12389A28861882846FFF794FFE188E7
:102000002846FFF783FF17E0208808280AD1238994
:10201000A28861882846FFF755FFE1882846FFF728
:1020200048FF09E02389A28861882846FFF719FF45
:10203000E1882846FFF708FF70BD0021018041803C
:10204000012181800021C180018170472DE9F0418B
:1020500005460C4600260127608808B9022600E0E4
:102060000026A088012801D1022700E0012720884E
:10207000A0B92389A28861882846FFF78AFFE188F2
:102080002846FFF77DFF23893A4631462846FFF769
:102090004AFFE1882846FFF739FF13E02389A28829
:1020A00061882846FFF73FFFE1882846FFF72EFFAB
:1020B00023893A4631462846FFF76BFFE1882846D8
:1020C000FFF75EFFBDE8F0810146486B70470146AF
:1020D000886B70470146C86B70470146086C7047B3
:1020E0000A884B881A438B881A43CB881A430B897A
:1020F0001A434B891A438B891A43A0F8442070472E
:102100000021018041808180C180018141818181E4
:10211000704731B1B0F8442042F40042A0F84420A6
:1021200005E0B0F84420C2F30E02A0F84420704746
:1021300021B1828842F00402828004E082884FF656
:10214000FB731A408280704721B1828842F00102FD
:10215000828004E082884FF6FE731A4082807047C6
:102160001AB183890B43838102E083898B43838186
:1021700070478182704702460020138A0B400BB1E2
:10218000012000E000207047CA430282704730B54A
:102190000246002000230024158A05EA01039589E0
:1021A00005EA010413B10CB1012000E0002030BDAC
:1021B000CA430282704741EA0203A0F848307047E0
:1021C0001AB183890B43838102E083898B43838126
:1021D000704721B1828842F00802828004E0828840
:1021E0004FF6F7731A408280704701894FF6F872F4
:1021F0001140018170470A46002101894FF68F7313
:10220000194011430181704730B504460D462946F7
:102210002046FFF7F0FF208940F00700208130BD05
:102220002DE9F04104460D4616461F46602D06D1A5
:102230003B46012231462046FFF775FE05E03B464E
:10224000012231462046FFF7A4FE29462046FFF72B
:10225000D2FF208940F007002081BDE8F08130B531
:102260000C4600210189C9B24FF6FF7505EA032526
:10227000154325432943018130BD2DE9F041054631
:102280000E4617469846002443463A4631462846AD
:10229000FFF7E5FF2C894FF6F870044044F007047F
:1022A0004FF68F70044044F070042C81BDE8F0813B
:1022B000F0B504460D4616461F463B4632462946B3
:1022C0002046FFF7CCFF208940F480402081F0BDFC
:1022D00082884FF68F731A40828082880A438280F8
:1022E000704702894FF6F8731A40028102890A4347
:1022F0000281704702894FF67F731A40028102897A
:102300000A4302817047F0B50C4615461E4600216F
:10231000002200230189028B038C4FF6F8773940A5
:1023200021434FF6FC473A4040F201173A434FF63B
:10233000DD773B404FF6FF7707EA06172F433B4315
:10234000018102830384F0BD21B1828842F08002C2
:10235000828004E082884FF67F731A408280704743
:10236000A0F850107047000010B50446FA488442A7
:1023700008D101211020FFF7B6F800211020FFF747
:10238000B2F857E0F548844209D101214804FFF72B
:1023900099F800214FF40030FFF794F84AE0F04834
:1023A000844209D101218804FFF78CF800214FF401
:1023B0008020FFF787F83DE0EA48844209D10121F7
:1023C000C804FFF77FF800214FF40020FFF77AF8E8
:1023D00030E0E548844209D101210805FFF772F891
:1023E00000214FF48010FFF76DF823E0DF488442AE
:1023F00008D101212020FFF776F800212020FFF7E7
:1024000072F817E0DA48844209D101218807FFF702
:1024100059F800214FF08040FFF754F80AE0D54802
:10242000844207D101214005FFF74CF800216005E7
:10243000FFF748F810BD2DE9FF4705460E4600247A
:10244000A14600BFA046B08900B100BF2C8A24F489
:102450004054F08804432C82AC8941F20C608443E0
:10246000B08831890843718908430443AC81AC8A40
:1024700024F44074B0890443AC826846FEF7B3FE8E
:10248000B548854202D0B948854202D1DDF80C90AA
:1024900001E0DDF80890A88900F4004040B109EBA4
:1024A000C90000EB091031684900B0FBF1F707E003
:1024B00009EBC90000EB091031688900B0FBF1F7A6
:1024C0006420B7FBF0F004012009642101FB1078BF
:1024D000A88900F4004040B1322000EBC800B0FBF6
:1024E000F1F000F00700044308E0322000EB081090
:1024F0006421B0FBF1F000F00F0004432C81BDE833
:10250000FF874FF41651016000218180C180018155
:102510000C21418100218181704710B502460020C5
:10252000108A20F470600B884C8823438C882343E6
:10253000CC8823431843108210BD002101804180C4
:102540008180C180704721B1828942F4005282812A
:1025500004E082894DF6FF731A4082817047028B36
:1025600002F47F420283028B0A430283704721B147
:10257000828942F40042828103E08289C2F30E0222
:102580008281704721B1828A42F40062828204E033
:10259000828A4FF2FF731A4082827047C1F30802A9
:1025A0008280704701468888C0F308007047028A1D
:1025B0004FF6F0731A400282028A0A430282704781
:1025C00021B1828942F00202828104E082894FF6C1
:1025D000FD731A408281704782894FF2FF731A405F
:1025E000828182890A4382817047028A4FF6DF73B3
:1025F0001A400282028A0A430282704721B1028A8B
:1026000042F48042028204E0028A4BF6FF731A40D1
:1026100002827047818941F001018181704721B1B7
:10262000828A42F00802828204E0828A4FF6F773BF
:102630001A4082827047028BD2B20283028B42EA36
:1026400001220283704721B1828A42F020028282F5
:1026500004E0828A4FF6DF731A408282704721B10C
:10266000828A42F01002828204E0828A4FF6EF737F
:102670001A4082827047828A4FF6FB731A40828228
:10268000828A0A438282704721B1828A42F0020222
:10269000828204E0828A4FF6FD731A40828270477C
:1026A0001AB1838A0B43838202E0838A8B4383823D
:1026B0007047F0B50346002400260025002040F6B0
:1026C0006A17B94200D100BF1846C1F3421401F0A5
:1026D0001F06012707FA06F5012C01D10C3004E092
:1026E000022C01D1103000E014301AB107682F43DA
:1026F000076002E00768AF430760F0BD02460020B4
:10270000B1F5007F00D100BF13880B400BB1012051
:1027100000E00020704701F40072B2F5007F00D1A4
:1027200000BFCA430280704770B5024600240023F0
:102730000025002040F66A16B14200D100BFC1F367
:10274000421501F01F03012606FA03F3012D13D1F0
:102750009689334017E0000000100140004400401B
:1027600000480040004C0040005000400014014070
:1027700000780040007C0040022D02D1168A3340D0
:1027800001E0968A33400C12012606FA04F41688FA
:10279000344013B10CB1012000E0002070BD10B531
:1027A0000022002340F66A14A14200D100BF0A12A1
:1027B00001249440A3B2DC43048010BD10B504464C
:1027C0006FF00400FEF716FAE11704EB5171C1F344
:1027D000C701394A11701046007800EB4001C1EB87
:1027E000C0104FF6FF7101EAC0003449088010BDE7
:1027F0000146314A12784A434FF0E0235A610022E1
:102800009A611A46126942F001021A6100BF4FF044
:10281000E022106900F001021AB100F48032002AAF
:10282000F5D04FF0E022126922F001024FF0E023D0
:102830001A6100229A6170470146204A12884A4371
:102840004FF0E0235A6100229A611A46126942F061
:1028500001021A6100BF4FF0E022106900F001028E
:102860001AB100F48032002AF5D04FF0E02212694C
:1028700022F001024FF0E0231A6100229A617047B2
:1028800070B504464FF4077094FBF0F0C6B24FF4F5
:10289000077094FBF0F100FB114085B205E04FF4A6
:1028A0000770FFF7C9FF701EC6B2002EF7D115B131
:1028B0002846FFF7C1FF70BD280000202A00002035
:1028C000014600BF704700BF4C4A128802F0400228
:1028D000002AF9D0C2B2494B9A80704710B588B02F
:1028E000044601210846FEF74FFD01211020FEF7A6
:1028F000A5FD072209214248FEF733FB07220A21E2
:102900003F48FEF72EFB4FF4C060069002208DF882
:102910001C008DF81D0000208DF81E0001208DF890
:102920001F0006A93648FEF791FA02940020ADF880
:102930000C00ADF80E00ADF81000ADF814000C203E
:10294000ADF8120002A92D48FFF775FD01212B48B3
:10295000FFF7F9FD012240F225512848FFF7A9FEB3
:1029600025208DF8040003208DF805008DF8060061
:1029700001208DF8070001A8FEF7EFF808B010BDA0
:1029800010B540F225511D48FFF7CEFE10B31B488D
:10299000FFF708FEC4B21B48008800F40040C8B925
:1029A0001848008800F4804060B10A2C03D0002051
:1029B0001449088020E01348008840F40040114981
:1029C000088019E00D2C06D10E48008840F48040A4
:1029D0000C49088010E00B480088C0F30D000A493C
:1029E0000C5408480088401C0649088008460088A6
:1029F000C72801DD0020088010BD00000010014044
:102A00000000024030000020340000207047000029
:102A10000FB4044910B503AA029800F0D1F810BC15
:102A20005DF814FB2C0000202DE9F0410E46044611
:102A3000002020622046E168884730B3252805D071
:102A4000D4E901219047206A401CF2E7E168204662
:102A500000278847050018D0A5F14100192802D8A1
:102A600020354FF400673246294620462760FDF79F
:102A7000C5FB40B1012804D0F61D26F00706083634
:102A8000D8E7361DD6E72846DAE7206ABDE8F081A8
:102A90002DE9F0410646002410687529314615A538
:102AA00010D0AFF30080002802DA404212A507E000
:102AB00031688A0701D511A502E0490704D510A5A0
:102AC000012401E0AFF3008000210A2306F124076E
:102AD00007E0B0FBF3F203FB1200303078541046ED
:102AE000491C0028F5D123462A463046BDE8F0416E
:102AF00000F00CB8000000002D0000002B000000CA
:102B00002000000070477047704770472DE9F0477C
:102B10000D4699469246044600F12408016888064D
:102B200004D5E06921F01001216000E00120A842F5
:102B300001DD471B00E00027A1697A1902EB0900BB
:102B4000081AA0612078C00602D42046AFF30080A6
:102B5000002608E0D4E901211AF806009047206A0F
:102B6000401C761C20624E45F4DB2078C0060AD556
:102B70002046AFF3008006E0D4E9012130209047E1
:102B8000206A401C2062381EA7F10107F4DC07E030
:102B9000D4E9012118F805009047206A401C206202
:102BA000281EA5F10105F3DC2046AFF30080207854
:102BB000000602D50220BDE8F0870120FBE70000F7
:102BC000074B70B50D467B4400F011F804462846CB
:102BD00000F020F810B14FF0FF3070BD204670BDFE
:102BE000FDFCFFFF01694A1C02610878704700B5CF
:102BF0008FB0CDE901310021059105497944CDE936
:102C0000031011466846FFF70FFF0FB000BD00002C
:102C1000E5FFFFFF007B00F080007047754600F085
:102C200029F8AE4605006946534620F00700854660
:102C300018B020B5FDF77AFFBDE820404FF0000640
:102C40004FF000074FF000084FF0000B21F0070194
:102C5000AC46ACE8C009ACE8C009ACE8C009ACE8D7
:102C6000C0098D4670470446AFF300802046FDF74B
:102C7000D9FA000000487047FC0000204FF0407077
:102C8000E1EE100A70470000A82C000800000020A8
:102C900034000000C4010008DC2C000834000020CF
:102CA0002C070000E0010008007A030A0000000081
:102CB00000000000010203040607080900000000EC
:102CC00000000000010203040102030406070809D2
:0C2CD000000000000000000000000000F8
:040000050800018965
:00000001FF
