:020000040800F2
:10000000D85C0020C5980008B5040008B7040008B3
:10001000BB040008BF040008C3040008000000007F
:10002000000000000000000000000000990200082D
:10003000C704000800000000ED020008951B00083E
:10004000DF980008DF980008DF980008DF980008B4
:10005000DF980008DF980008DF980008DF980008A4
:10006000DF980008DF980008E1400008DF980008EA
:10007000DF980008DF980008DF980008DF98000884
:10008000DF980008DF980008DF980008DF98000874
:10009000DF980008DF980008DF980008DF98000864
:1000A000DF980008DF980008DF980008DF98000854
:1000B000DF980008DF980008DF980008DF98000844
:1000C000DF980008DF980008DF980008DF98000834
:1000D000DF980008411D0008DF9800089B1E0008FB
:1000E000DF980008DF980008DF980008DF98000814
:1000F000DF980008DF980008DF980008DF98000804
:10010000DF980008DF980008DF980008DF980008F3
:10011000DF980008DF980008D5350008DF98000850
:10012000DF980008DF980008DF980008DF980008D3
:10013000DF980008DF980008DF980008DF980008C3
:10014000DF980008DF980008DF980008DF980008B3
:10015000DF980008DF980008DF980008DF980008A3
:10016000DF980008DF980008DF980008DF98000893
:10017000DF980008DF980008DF980008DF98000883
:10018000DF980008DF98000800F002F800F075F82A
:100190000AA090E8000C82448344AAF10107DA45E2
:1001A00001D100F06AF8AFF2090EBAE80F0013F0BF
:1001B000010F18BFFB1A43F001031847DCCB000006
:1001C000FCCB00000A444FF0000C10F8013B13F088
:1001D000070408BF10F8014B1D1108BF10F8015BA0
:1001E000641E05D010F8016B641E01F8016BF9D193
:1001F00013F0080F1EBF10F8014BAD1C0C1B09D1EA
:100200006D1E58BF01F801CBFAD505E014F8016B5B
:1002100001F8016B6D1EF9D59142D6D370470000ED
:100220000023002400250026103A28BF78C1FBD8FF
:10023000520728BF30C148BF0B60704766290BF0DA
:10024000C980642909F07486752909F071866329CB
:100250000AF04F8273290AF05482002070471FB5BC
:100260000BF0B3F80AF0B8FA0400002000210BF0FC
:100270001FF8E0601FBD10B510BD0AF0D3FB11469A
:10028000FFF7EDFF00F064F80AF0F1FB03B4FFF7AD
:10029000F2FF03BC01F0F4FC2A4B19680868B0E8CF
:1002A000F04F80F30988BFF36F8F4FF0000080F3A9
:1002B000118870470000000006480068006880F35D
:1002C000088862B661B6BFF34F8FBFF36F8F00DF50
:1002D00000BF00BF08ED00E0DFF80C00016841F44A
:1002E00070010160704700BF88ED00E0EFF3098006
:1002F000BFF36F8F134B1A681EF0100F08BF20ED6D
:10030000108A20E9F04F106008B44FF0500080F3DD
:100310001188BFF34F8FBFF36F8F08F01CF84FF0B9
:10032000000080F3118808BC19680868B0E8F04F35
:100330001EF0100F08BFB0EC108A80F30988BFF3DD
:100340006F8F7047E8000020EFF3058070470000D2
:100350001CB501244FF4407004F0A2FBA82001F06A
:1003600021FC4FF4E13001F098FC4FF4165001F0FD
:1003700041FD01F005FE012001F022FE01F0A8FE82
:100380004FF47A724FF45271500003F00FFD03F0F6
:10039000E5F802F02EFB02F033F8002002F010FB2B
:1003A000002002F04EF800204FF6FF7130A30C221F
:1003B000CDE900103221084603F0A7F8002002F032
:1003C000EEF809F0BAFC03F057FE28B100202E49E0
:1003D00008602E49C1F8A00209F0D2FC04F036FBF7
:1003E000032003F03FFF042003F06AFF022003F024
:1003F000A4FF042003F0BAFF002003F0E1FF24A0D3
:1004000009F04CFD032125A001F096FD24A30C2248
:100410000A21084603F059F81BE0012001F078FE9C
:1004200060B121A30C220A21502003F04EF80024D1
:10043000322001F0E0FD01201D490870022001F08A
:1004400067FE30B10024322001F0D5FD00201849AC
:100450000870002CE1D1002002F0A1F8002001F08A
:10046000F0FF01F06CF808F0ECF800BFFEE70000C8
:1004700054686973206973206D79204F5637363779
:100480003020746573742100A4824242008042428D
:100490004F5637363730204F4B0A00004F4B0A007B
:1004A0005265616479000000446562756700000070
:1004B00000000020704700BFFEE700BFFEE700BF5E
:1004C000FEE700BFFEE770470CB5002001900090EA
:1004D0007648006840F480307449086000BF734873
:1004E000006800F4003000900198401C01900098D2
:1004F00018B90198B0F5A04FF1D16C48006800F42C
:10050000003010B10120009001E000200090009820
:10051000012846D165484030006840F0805063496A
:10052000403108606248006840F44040604908601B
:100530005E48083000685D49083108600846006878
:1005400040F4004008600846006840F4A05008608D
:100550005848091F0860081F006840F08070091F94
:10056000086000BF5148006800F000700028F9D012
:1005700040F20570504908604C480830006820F08F
:1005800003004A49083108600846006840F002004C
:10059000086000BF45480830006800F00C000828DB
:1005A000F8D10CBD10B54548006840F470004349CF
:1005B00008603E48006840F001003C4908600020A7
:1005C0003A4908310860394800683D4908403749D0
:1005D00008603C48091D0860081F006820F480205E
:1005E000091F0860002031490C310860FFF76CFFDB
:1005F0004FF0006031498039086010BD70B50020AF
:100600000022022300240221284D08352D6805F020
:100610000C0020B1042806D0082834D107E02A4D68
:100620002A4E356033E02A4D284E35602FE01F4DAD
:100630002D1D2D68C5F380541C4D2D1D2D6805F012
:100640003F0154B1224DB5FBF1F5184E361D366809
:10065000C6F3881605FB06F209E01B4DB5FBF1F564
:10066000124E361D3668C6F3881605FB06F20F4D8E
:100670002D1D2D68C5F301456D1C6B00B2FBF3F514
:10068000124E356003E0104D104E356000BF00BFC4
:10069000064D08352D68C5F303150E4E705D0B4DE4
:1006A0002D68C540094E356070BD0000003802401D
:1006B0000070004008544007003C024088ED00E014
:1006C000FFFFF6FE103000240024F4000400002098
:1006D00000127A00080000209FEDFE0AFE4880ED1F
:1006E000000A9FEDFC0AFD4880ED000A70471CB52A
:1006F0000125002601240020F9490860F949C1F8C4
:10070000A402E4E009F019FB01214FF47A7001F032
:100710006CF802214FF47A7001F067F8F248006833
:1007200007F052FEF148006807F04EFEF0480068FE
:1007300007F04AFEEF48006807F046FE02F06BFF44
:100740000020ED4908700120EC490870FFF7C4FF54
:100750004FF6FF704FF4A073F0220021009008467E
:1007600002F08CFC4FF6FF703E23C822322100902D
:100770005A2002F083FCE2A30C2232215A2002F01C
:10078000A4FEE1A30C2264211E2002F09EFE0020A4
:100790000C2101232246CDE900106421782002F0CB
:1007A00005FE09F0EDFA642001F03BFA01258BE02B
:1007B000322001F036FA012000F0CEFF38B101F00E
:1007C0000BF8601CC4B2052C00D101240126BEB177
:1007D000002609F0B2FA4FF6FF70782382226421D6
:1007E0000090184602F04AFC00200C21012322460A
:1007F000CDE900106421782002F0D8FD09F0C0FA9C
:10080000032000F0A9FF00285ED000F0E5FF09F00A
:1008100094FAB94804704FF6FF703E23C822322183
:1008200000905A2002F02AFC012C06D0022C0BD09A
:10083000032C10D0042C1CD114E0B7A30C223221BD
:100840005A2002F042FE14E0B5A30C2232215A20B5
:1008500002F03BFE0DE0B4A30C2232215A2002F03C
:1008600034FE06E0B2A30C2232215A2002F02DFE03
:1008700000BF00BF012C06D0022C09D0032C0CD0E5
:10088000042C14D10EE09848006807F022FE0EE018
:100890009648006807F01DFE09E09548006807F0DB
:1008A00018FE04E09348006807F013FE00BF00BF85
:1008B00002F0AAFE0020914908709F48006807F0E6
:1008C00083FD002509F05CFA002D7FF471AF19E774
:1008D00011E000235A1E19469848006806F0E2FC11
:1008E00000207F49091D0860322001F09AF901209B
:1008F0007C49C1F8A402ECE709E079480068C043EC
:100900007849C1F8A0024FF47A7007F0FBFBF4E7D6
:1009100008B54FE000235A1E19468948006806F0C2
:10092000C1FC09F00AFA00F057FF73480078F8B1EB
:1009300071480078012806D0022809D003280CD07D
:10094000042814D10EE06848006807F03DFD0EE071
:100950006648006807F038FD09E06548006807F060
:1009600033FD04E06348006807F02EFD00BF00BFC0
:100970000020614908706148007818B96E48006825
:1009800007F0A7FD01205D4908704FF6FF704FF496
:10099000A073F02200210090084602F06FFB58A3DC
:1009A0000C2232215A2002F090FD09F0E9F964206E
:1009B00001F037F9AEE709E000235A1E19466148F5
:1009C000006806F06FFC322001F015FBF4E736E01A
:1009D000012001F09DFB40B100231A4619465A48F8
:1009E000006806F017FB00F0EEFE022001F090FB1D
:1009F00040B100231A4619465448006806F00AFB25
:100A000000F0E1FE032001F083FB40B100231A4611
:100A100019464F48006806F0FDFA00F0D4FE0420A5
:100A200001F076FB40B100231A461946444800689D
:100A300006F0F0FA00F0C7FE142007F063FBC7E7EA
:100A400000240BE000235A1E19464248006806F0B5
:100A500029FC0446012C01D100F0D4FEF2E72DED73
:100A60000A8B86B00024C7E200235A1E19463A4872
:100A7000006806F017FC0446012CF4D137480088C2
:100A800000F4004000286DD000203449088034482C
:100A90000078582867D1324840785028FAD1304839
:100AA00040794928F6D12E48807A4428F2D12C4842
:100AB0008078303800287DD12948C0783038002827
:100AC00078D1274800793038002873D124488079BC
:100AD000303849E000000000B4000020CC000020C5
:100AE000A0824242008042425C000020640000205C
:100AF000680000206C000020010000201800002089
:100B0000537461727420000053656C6563742054E3
:100B100061736B20000000005461736B2031000092
:100B20005461736B203200005461736B20330000FA
:100B30005461736B20340000580000203C000020FA
:100B40003400002038000020280000202C00002065
:100B500030000020200000201C0000207800002031
:100B60005C01002033E1D9E020BBFA48C07930387D
:100B700000BBF848007A3038E0B9F648407A30389F
:100B8000C0B9F448C07A3038A0B9F248007B303898
:100B900080B9F048407B303860B9EE48807B30380F
:100BA00040B9ED4800680AF09FFB41EC1A0BEB4896
:100BB000006800E013E00AF097FB41EC1B0BE848EB
:100BC00000680AF091FB41EC1C0B8DED02AB8DED42
:100BD00000BB53EC1C2BE3A009F060F99EE0DD485C
:100BE00080783038642110FB01F1DA48C078303861
:100BF00000EB800001EB4001D64800793038084412
:100C000000EE100AB8EEC08AD248C079303800EE43
:100C1000100AB8EEC00AB2EE041AC0EE010ACD48BE
:100C20008079303800EE100AB8EEC00A70EE800A03
:100C3000C848007A303800EE100AB8EEC00A9FEDBE
:100C4000D01AC0EE011A70EEA10AC248407A3038BC
:100C500000EE100AB8EEC00A9FEDCA1AC0EE011AE3
:100C600070EEA18ABB48407B303800EE100AB8EE27
:100C7000C00AF2EE040A80EE201AB648007B303833
:100C800000EE100AB8EEC00AB248C07A303800EE62
:100C9000900AF8EEE00AF2EE041A00EEA10A71EEF4
:100CA000000AAC48807B303800EE100AB8EEC00A6B
:100CB0009FEDB31AC0EE011A70EEA10AA548C07BE1
:100CC000303800EE100AB8EEC00A9FEDAE1AC0EE42
:100CD000011A30EEA19AA24880ED008A9F48C0ED2B
:100CE000008A9D4880ED009A00680AF0FDFA41EC08
:100CF0001A0B9A4800680AF0F7FA41EC1B0B984867
:100D000000680AF0F1FA41EC1C0B8DED02AB8DEDA1
:100D100000BB53EC1C2B9CA009F0C0F88D48007858
:100D2000592854D18B4840785028FAD189484079C5
:100D30004928F6D18748807A4428F2D185488078BE
:100D40003038E0BB8348C0783038C0BB8148007978
:100D50003038A0BB7F488079303880BB7D48C0796F
:100D6000303860BB7B48007A303840BB7948407AE5
:100D7000303820BB7748C07A303800BB7548007BDC
:100D80003038E0B97348407B3038C0B97148807B57
:100D90003038A0B9834800680AF0A6FA41EC1A0B73
:100DA000814800680AF0A0FA41EC1B0B7F480068FC
:100DB0000AF09AFA41EC1C0B8DED02AB00E007E063
:100DC0008DED00BB53EC1C2B79A009F067F89EE079
:100DD000604880783038642110FB01F15D48C078AC
:100DE000303800EB800001EB40015A480079303880
:100DF000084400EE100AB8EEC08A5648C079303870
:100E000000EE100AB8EEC00AB2EE041AC0EE010AF3
:100E100050488079303800EE100AB8EEC00A70EE03
:100E2000800A4C48007A303800EE100AB8EEC00A4A
:100E30009FED531AC0EE011A70EEA10A4548407AA0
:100E4000303800EE100AB8EEC00A9FED4E1AC0EE20
:100E5000011A70EEA18A3F48407B303800EE100A3C
:100E6000B8EEC00AF2EE040A80EE201A3948007B80
:100E7000303800EE100AB8EEC00A3648C07A303872
:100E800000EE900AF8EEE00AF2EE041A00EEA10A73
:100E900071EE000A2F48807B303800EE100AB8EE61
:100EA000C00A9FED371AC0EE011A70EEA10A294858
:100EB000C07B303800EE100AB8EEC00A9FED311A40
:100EC000C0EE011A30EEA19A384880ED008A36480B
:100ED000C0ED008A334880ED009A00680AF004FAF9
:100EE00041EC1A0B304800680AF0FEF941EC1B0B8C
:100EF0002E4800680AF0F8F941EC1C0B8DED02ABAE
:100F00008DED00BB53EC1C2B30A008F0C7FF36481A
:100F1000008800F4004000286ED00020324908808C
:100F200032480078522813D130484078303880B9A0
:100F30002F4890F824003030C0B20590012105A858
:100F400000F0FAFF01212BA000F0F6FF00F03BFCBF
:100F5000BAE052E05C010020A8000020A4000020BC
:100F6000A00000206E6F7758503D252E316620205E
:100F7000493D252E34662020443D252E35660A0045
:100F80000000C84200007A4458503D252E316620AA
:100F900020493D252E34662020443D252E35660A05
:100FA00000000000C0000020BC000020B8000020AD
:100FB0006E6F7759503D252E31662020493D252EF4
:100FC00034662020443D252E35660A0059503D25C3
:100FD0002E31662020493D252E34662020443D25B3
:100FE0002E35660A000000007A000020240200204E
:100FF000040300200A0000006EE2FE48407830380A
:10100000FD4981F824000121FA48401C00F094FFBA
:101010000121AFF2200000F08FFFF74890F8240084
:101020000A284ED2DFE800F04D050D151D252D359F
:101030003D45F1480088F1498880EF484088C880E4
:101040003FE0ED488088ED498880EB48C088C88043
:1010500037E0E9480089E9498880E7484089C88045
:101060002FE0E5488089E5498880E348C089C88049
:1010700027E0E148008AE1498880DF48408AC8804B
:101080001FE0DD48808ADD498880DB48C08AC8804F
:1010900017E0D948008BD9498880D748408BC88051
:1010A0000FE0D548808BD5498880D348C08BC88055
:1010B00007E0D148008CD1498880CF48408CC88057
:1010C00000BF00BF00F07FFBCA480078502845D120
:1010D000C8484078303820BBC6488078303800BBDC
:1010E000C74800780A2190FBF1F03030C0B205907B
:1010F000C348007890FBF1F201FB12003030C0B21F
:101100000490012105A800F017FF012104A800F0B8
:1011100013FF0121AFF2241000F00EFF00F053FB8B
:101120001CE0B44880783038B2494978303901EB56
:10113000810100EB4100B24908700121AD48401C1B
:1011400000F0FAFE0121AB48801C00F0F5FE012101
:10115000AFF2601000F0F0FE00F035FBA54800781B
:10116000492837D1A3484078452833D1A148807811
:101170003038022818D1A34890ED000ADFEDA20A0A
:1011800030EE200ABCEEC00A10EE100AC0B2059084
:10119000012105A800F0D0FE0121AFF2A81000F057
:1011A000CBFE00F010FB15E092488078303800EE5E
:1011B000100AB8EEC00A934880ED000A01218D485C
:1011C000801C00F0B9FE0121AFF2D81000F0B4FE8F
:1011D00000F0F9FA8748007858282ED185484078E1
:1011E0004F282AD1834880784E2826D18148C0785C
:1011F0003038022810D1854800783030C0B20590D0
:10120000012105A800F098FE0121AFF2182000F09E
:1012100093FE00F0D8FA10E07648C07830387B4969
:10122000087001217348C01C00F086FE0121AFF256
:101230003C2000F081FE00F0C6FA6E480078592884
:101240002ED16C4840784F282AD16A4880784E28A1
:1012500026D16848C0783038022810D16C48007810
:101260003030C0B20590012105A800F065FE0121D3
:10127000AFF2802000F060FE00F0A5FA10E05D48BB
:10128000C07830386249087001215A48C01C00F00B
:1012900053FE0121AFF2A42000F04EFE00F093FABD
:1012A0005448007858287DD152484078502879D148
:1012B00050484079492875D14E48807A442871D1E8
:1012C0004C4880783038642110FB01F14948C078DF
:1012D000303800EB800001EB40014648007930389F
:1012E000084400EE100AB8EEC08A4248C07930388F
:1012F00000EE100AB8EEC00AB2EE041AC0EE010AFF
:101300003C488079303800EE100AB8EEC00A70EE22
:10131000800A3848007A303800EE100AB8EEC00A69
:101320001FEDE91AC0EE011A70EEA10A3148407AA9
:10133000303800EE100AB8EEC00A1FEDEE1AC0EE0B
:10134000011A70EEA18A2B48407B303800EE100A5B
:10135000B8EEC00AF2EE040A80EE201A2548007B9F
:10136000303800EE100AB8EEC00A2248C07A303891
:1013700000EE900AF8EEE00AF2EE041A00EEA10A7E
:1013800071EE000A1B48807B303800EE100AB8EE80
:10139000C00A9FED201AC0EE011A70EEA10A15488E
:1013A000C07B00E015E0303800EE100AB8EEC00A4D
:1013B0009FED191AC0EE011A30EEA19A174880ED80
:1013C000008A1748C0ED008A164880ED009A00F0A8
:1013D000FAF90848007859287ED106484078502804
:1013E0007AD104484079492876D10248807A442845
:1013F00072D119E02402002004030020EC02002036
:10140000D50000209800002000004042600000202D
:10141000610000200000C84200007A44A0000020C3
:10142000A4000020A80000209D4880783038642166
:1014300010FB01F19A48C078303800EB800001EBD6
:101440004001974800793038084400EE100AB8EEA1
:10145000C08A9348C079303800EE100AB8EEC00A4E
:10146000B2EE041AC0EE010A8D488079303800EEE1
:10147000100AB8EEC00A70EE800A8948007A303847
:1014800000EE100AB8EEC00A1FED1E1AC0EE011AD7
:1014900070EEA10A8248407A303800EE100AB8EEA9
:1014A000C00A1FED231AC0EE011A70EEA18A7C4813
:1014B000407B303800EE100AB8EEC00AF2EE040AA3
:1014C00080EE201A7648007B303800EE100AB8EE25
:1014D000C00A7348C07A00E02FE0303800EE900A6E
:1014E000F8EEE00AF2EE041A00EEA10A71EE000A2C
:1014F0006B48807B303800EE100AB8EEC00A1FED52
:101500003B1AC0EE011A70EEA10A6548C07B303864
:1015100000EE100AB8EEC00A1FED411AC0EE011A23
:1015200030EEA19A5F4880ED008A5F48C0ED008AE6
:101530005E4880ED009A00F046F9FFF795BA1CB5B9
:1015400001240021C82005F0A9FF594908600021A5
:10155000C82005F0A3FF574908600021C82005F006
:101560009DFF554908600021C82005F097FF5349A9
:1015700008600021C82005F091FF51490860002152
:10158000C82005F08BFF4F4908600322002101208D
:1015900005F045FC4C49086003220021012005F0BC
:1015A0003EFC4A4908604248006870B14148006802
:1015B00058B14148006840B14048006828B14048EF
:1015C000006810B13F48006818B941A008F066FCF7
:1015D00000244448092100234FF4FA72CDE9001099
:1015E00041A1AFF6853006F00DFB424809210023EA
:1015F0004FF4FA72CDE900103FA1AFF6BB3006F010
:1016000001FB40480A2100234FF4FA72CDE9001093
:101610003DA1AFF6454006F0F5FA3D480A2100230A
:101620006422CDE900103BA1AFF6754006F0EAFA5E
:101630003B480B2100234FF4FA72CDE9001039A189
:10164000AFF6335006F0DEFA38480A210023322282
:10165000CDE9001036A1AFF65F5006F0D3FA364858
:101660000A2100236422CDE9001034A1AFF69F5077
:1016700006F0C8FA34480B2100234FF4FA72CDE982
:10168000001032A1AFF6997006F0BCFA00F007FA2C
:1016900000F03BFA00F051FA00F067FA20461CBD5A
:1016A00024020020B8000020BC000020C000002060
:1016B000280000202C0000203000002034000020F2
:1016C000380000203C0000201C00002020000020EA
:1016D000BCC6CAFDD0C5BAC5C1BFB4B4BDA8CAA7EF
:1016E000B0DC0A004000002044617461494E74611E
:1016F000736B000044000020446174614F555474C2
:1017000061736B00480000204B45597461736B0096
:1017100050000020424545507461736B000000008A
:101720004C000020454E447461736B00240000207F
:101730004C45447461736B00540000204C454431A7
:101740007461736B000000005800002053746172D4
:10175000747461736B00000070B504460025012CA1
:1017600006D0022C0ED0032C16D0042C28D11DE05C
:101770000023022219465848006805F093FD00B185
:1017800001251DE00023022219465448006805F097
:1017900089FD00B1012513E00023022219465048BB
:1017A000006805F07FFD00B1012509E00023022259
:1017B00019464C48006805F075FD00B1012500BFD1
:1017C00000BF284670BD10B500231A46194646488A
:1017D000006805F01FFC10BD10B500231A4619461D
:1017E0004248006805F016FC10BD70B504460D4671
:1017F000B4F5FA6F01DD4FF4FA642946204602F091
:1018000099FB70BD2DE9FF41804603200390FC2029
:1018100002900024002500270026354804884588CA
:101820008788C688B8F1000F40D0012103A800F0D6
:10183000C4FA012102A800F0C0FA20120190E0B21F
:1018400000900121684600F0B8FA012101A800F0DB
:10185000B4FA28120190E8B200900121684600F025
:10186000ACFA012101A800F0A8FA38120190F8B2F0
:1018700000900121684600F0A0FA012101A800F0C3
:101880009CFA30120190F0B200900121684600F0FD
:1018900094FA012101A800F090FA012102A800F0B9
:1018A0008CFA012103A800F088FA09E02A462146B3
:1018B00010A008F0F3FA324639460EA008F0EEFA0E
:1018C000BDE8FF8110B500231A4619460B48006891
:1018D00005F0A0FB10BD0000280000202C00002017
:1018E0003000002034000020380000203C000020A0
:1018F000EC02002025642025640A0000200000205E
:101900002DED028B82B0012400259FED6B0AB0EE15
:10191000408A9FED690AF0EE408A0026BEE001F0A1
:101920007AFE08F00AFA9FED640AB0EE408A9FED55
:10193000620AF0EE408A9FED600A604880ED000A7E
:101940009FED5D0A5E4880ED000A01214FF47A7038
:10195000FFF74BFF02214FF47A70FFF746FF00209C
:1019600000F01DFE002000F06CFD4FF6FF704FF4FC
:10197000A073F02200210090084601F07FFB51A3E4
:101980000C2232215A2001F0A0FD50A30C22642128
:10199000322001F09AFD4FA30C229621322001F053
:1019A00094FD08F0EDF90320FFF7D6FEB8B14FF62D
:1019B000FF704FF4A073F02200210090084601F060
:1019C0005DFB012000F0EBFD002000F03AFD012559
:1019D00001244248006840F01000404908605BE084
:1019E00000235A1E19463E48006805F05BFC064677
:1019F000012E51D1601CC4B2042C02D102F05AFD58
:101A0000002403F00EF8E8B33648007898B1364861
:101A1000808801EE100AB8EE411AF0EE410A324811
:101A2000008801EE100AB8EE411AB0EE410A01F04A
:101A300001FEB0EE408A2D48007898B12A48C0884F
:101A400001EE100AB8EE411AF0EE410A264840882D
:101A500001EE100AB8EE411AB0EE410A01F0A5FEFF
:101A6000F0EE408AF0EE680AB0EE480A01F057FF47
:101A70001F48007808B1FFF725FF0320FFF76CFE31
:101A800000B100E008E000251448006820F01000D4
:101A90001249086001F0BFFD002DA1D13FE71CB540
:101AA00014480A210023FA22CDE9001012A1AFF256
:101AB000AF1006F0A7F81CBD00000000B400002025
:101AC000CC0000205461736B203100004B4559332A
:101AD0000000000053544F5000000000003C014043
:101AE0009000002060000020EC0200206100002037
:101AF000000000205C0000205461736B317461733E
:101B00006B00000000BF00BFFEE71CB505480A21BE
:101B10000023FA22CDE9001003A1AFF2170006F06E
:101B200071F81CBD640000205461736B32746173E2
:101B30006B00000000BF00BFFEE71CB505480A218E
:101B40000023FA22CDE9001003A1AFF2170006F03E
:101B500059F81CBD680000205461736B33746173C5
:101B60006B00000000BF00BFFEE71CB505480A215E
:101B70000023FA22CDE9001003A1AFF2170006F00E
:101B800041F81CBD6C0000205461736B34746173A8
:101B90006B00000010B507F006F8012801D008F02E
:101BA00007F910BD70B50446042002F0CBFF32489F
:101BB000047025464FF47A70454301202F49088070
:101BC0004FF0E020006940F002004FF0E021086192
:101BD00008464561006940F00100086170BD70B5BC
:101BE000034600224FF0E0267569234E367803FB4A
:101BF00006F44FF0E026B16910E04FF0E026B0693E
:101C000088420BD0884202D20E1A324402E02E1AC9
:101C10000E4432440146A24200D300E0EDE700BF8B
:101C200070BD70B5044606F0BEFF012810D0134801
:101C30000088844206D311480088B4FBF0F528469A
:101C400006F060FA0D480088B4FBF0F100FB114487
:101C50004FF47A7104FB01F0FFF7C1FF70BD30B59E
:101C60000446002504E04FF47A70FFF7B8FF6D1CBE
:101C7000A542F8D330BD00007000002072000020A3
:101C800000BF704700BF574A128802F04002002A86
:101C9000F9D0C2B2534B9A80704710B588B0044651
:101CA0000121084603F0FCFD0121102003F052FE43
:101CB000072209214C4803F0E0FB07220A214A4889
:101CC00003F0DBFB4FF4C060069002208DF81C008F
:101CD0008DF81D0000208DF81E0001208DF81F00DA
:101CE00006A9414803F03EFB02940020ADF80C0029
:101CF000ADF80E00ADF81000ADF814000C20ADF8F2
:101D0000120002A9374804F022FE0121354804F0F0
:101D1000A6FE012240F22551324804F056FF25204C
:101D20008DF8040008208DF8050000208DF80600CD
:101D300001208DF8070001A802F0B7FE08B010BD21
:101D400010B540F22551274804F07AFF10B325481A
:101D500004F0B4FEC4B22548008800F40040C8B9BD
:101D60002248008800F4804060B10A2C03D0002093
:101D70001E49088020E01D48008840F400401B49AF
:101D8000088019E00D2C06D11848008840F48040E6
:101D90001649088010E015480088C0F30D0014496A
:101DA0000C5412480088401C1049088008460088DE
:101DB000C72801DD0020088010BD70B505460E461D
:101DC00000240CE0295D074804F074FE00BF4021A8
:101DD000044804F01FFF0028F9D0601CC4B2B442CC
:101DE000F0DB70BD001001400000024078000020D0
:101DF0005C01002010B588B004460121022003F0E8
:101E00004FFD0121880403F094FD07220A21554863
:101E100003F033FB07220B21524803F02EFB4FF453
:101E20004060069002208DF81C008DF81D000020F7
:101E30008DF81E0001208DF81F0006A9494803F007
:101E400091FA02940020ADF80C00ADF80E00ADF848
:101E50001000ADF814000C20ADF8120002A94248A1
:101E600004F075FD0121404804F0F9FD012240F223
:101E700025513D4804F0A9FE27208DF804000B20D1
:101E80008DF8050000208DF8060001208DF8070070
:101E900001A802F00AFE08B010BD38B540F2255185
:101EA000314804F0CDFE10B32F4804F007FEC4B251
:101EB0002E48008800F40040C8B92C48008800F47F
:101EC000804060B10A2C03D000202849088020E01F
:101ED0002648008840F400402449088019E00D2C71
:101EE00006D12248008840F480402049088010E054
:101EF0001E480088C0F30D001D490C541B48008883
:101F0000401C1A49088008460088C72801DD0020C7
:101F100008801848007870B169461748006805F0D5
:101F200063FB009838B14FF0805014490860BFF34C
:101F30004F8FBFF36F8F38BD70B505460E46002436
:101F40000CE0295D084804F0B5FD00BF40210648BB
:101F500004F060FE0028F9D0601CC4B2B442F0DB8B
:101F600070BD000000040240004800407A000020DC
:101F700024020020020000201C00002004ED00E0EC
:101F800010B54FF48071052001F026FD4FF400716B
:101F9000052001F021FD10BD10B5002300220346ED
:101FA0000A4613B1012B07D102E0044C226003E082
:101FB000024C241D226000BF00BF10BDA08242421F
:101FC00070B5044625464FF40061032001F004FD7E
:101FD00045B101203A49087000203A4908703A4951
:101FE000086007E000203649087001203549087074
:101FF0003549086070BD70B5044625463048007804
:10200000314908602846FFF70CFE2E4800782F491A
:10201000C1F8AC0270BD2DE9F04104460D462646DC
:102020002F4627480078284908603046FFF7F9FD19
:10203000244800782549C1F8AC023846FFF7F1FD85
:102040001F480078204908603046FFF7EAFD1D4828
:1020500000781E49C1F8AC02BDE8F0812DE9F041DD
:1020600004460D4626462F46154800781649086056
:102070003046FFF7D6FD134800781449C1F8AC028A
:102080003846FFF7CEFD0E4800780F49086030460D
:10209000FFF7C7FD0B4800780C49C1F8AC02384681
:1020A000FFF7BFFD06480078074908603046FFF794
:1020B000B8FD044800780549C1F8AC02BDE8F081DC
:1020C0007C0000207D000020AC8241420080414223
:1020D00010B501220221042001F0CDFC01220421CF
:1020E000084601F0C8FC01220821042001F0C3FCCD
:1020F00001221021042001F0BEFC01222021042035
:1021000001F0B9FC01224021042001F0B4FC10BD13
:1021100070B504460025072C2FD2DFE804F02E040A
:102120000B12192027000221534803F07DF900B952
:10213000012525E00421504803F076F900B9012576
:102140001EE008214C4803F06FF900B9012517E0A3
:102150001021494803F068F900B9012510E0202159
:10216000454803F061F900B9012509E040214248E2
:1021700003F05AF900B9012502E00025002070BDE6
:1021800000BF002D75D00A20FFF74BFD072C6DD244
:10219000DFE804F06C041526374859000221364860
:1021A00003F042F948B902E01420FFF73AFD02219A
:1021B000314803F039F90028F6D00120DFE7042187
:1021C0002D4803F031F948B902E01420FFF729FD4A
:1021D0000421294803F028F90028F6D00120CEE791
:1021E0000821254803F020F948B902E01420FFF740
:1021F00018FD0821204803F017F90028F6D0012027
:10220000BDE710211C4803F00FF948B902E0142083
:10221000FFF707FD1021184803F006F90028F6D053
:102220000120ACE72021144803F0FEF848B902E091
:102230001420FFF7F6FC20210F4803F0F5F80028E2
:10224000F6D001209BE740210B4803F0EDF848B998
:1022500002E01420FFF7E5FC4021074803F0E4F812
:102260000028F6D001208AE703E0FFE700250020E0
:1022700085E7002083E7000000100240F64A108046
:10228000921C1180704710B50446F3480480052065
:10229000FFF7A5FCF048801C008810BDEF480088BF
:1022A000ED490880704700BF0100A0F10102D0B2E3
:1022B000FAD1704730B5014601F01F04C1F3451350
:1022C000CA0AE50205EB43151544A8B230BD10B5A6
:1022D00003460C46E248008849F24131884212D157
:1022E000E0480088DC4908801812891C0880D8B2B0
:1022F0000880DD480088891E08802012891C08801B
:10230000E0B2088012E0D9480078012804D1D8480A
:102310000088401EC01A83B21946D2480088FFF7D1
:10232000ADFF2146D0480088FFF7A8FF10BD3EB59D
:1023300004460D460020029001900090CC48008891
:10234000844203DACB480088854201DB00203EBD91
:1023500029462046FFF7BBFFC148008849F24131BA
:10236000884203D12E20BC49088002E02220BA49CD
:102370000880B948801C008808B100200290022023
:10238000FFF791FFB448801C00880290B448008891
:1023900049F24131884211D10220FFF784FFAE4853
:1023A000801C00880090BDF80800C0B20190BDF804
:1023B00004004FF6FF7101EA00200190A848008850
:1023C00049F22531884202D1BDF80800BFE7A44890
:1023D000008849F2413188420DD1BDF80800C01291
:1023E000C002BDF80410891240EA4110BDF8001087
:1023F00040EAE120ABE7BDF80800FFF75BFFA6E786
:1024000000B59748008849F24131884203D129201C
:102410009149088004E040F273110720FFF72EFF76
:1024200000BD00B58E48008849F24131884203D191
:1024300028208949088003E000210720FFF71EFFBC
:1024400000BD70B5044600230026884800780128A6
:1024500018D1082C15D2DFE804F00406080A0C0E87
:10246000101206240DE007240BE0042409E00524E3
:1024700007E0012405E0002403E0032401E0022436
:1024800000BF00BF7648008849F2413188425ED1E2
:10249000082C1CD2DFE804F00406090C0F121518F2
:1024A00000BF14E043F0800311E043F040030EE06E
:1024B00043F0C0030BE043F0200308E043F0600367
:1024C00005E043F0A00302E043F0E00300BF00BFDB
:1024D000362643F0080319463046FFF7CFFE03F0D7
:1024E000200068B16248008862490988884207DA9A
:1024F0005F4805885F4800885D4908805D48058021
:1025000058480088544908800020891C08800880A9
:1025100057480088401EC0F30F20088054480078B8
:10252000401EC0B2088050480088891E08800020E4
:10253000891C088008804F480088401EC0F30F2087
:1025400008804C480078401EC0B2088026E0082C65
:102550001CD2DFE804F004070A0D15180F1243F02F
:10256000300313E043F0100310E043F020030DE0CC
:1025700000BF0BE043F0180308E043F0080305E058
:1025800043F0380302E043F0280300BF00BF0326F6
:1025900043F4805319463046FFF770FE70BD10B506
:1025A00004461CBB002031490870F02030490880E7
:1025B0004FF4A0702F4908802948008849F2413122
:1025C000884209D12C20254908802A2025490880E5
:1025D0002B20254908802CE022202049088020203B
:1025E0002049088021202049088022E001201F493D
:1025F00008704FF4A0701E490880F0201D49088023
:102600001748008849F24131884209D12C201349EA
:1026100008802A20134908802B201349088008E0ED
:1026200022200E49088021200E49088020200E49D2
:1026300008800020FFF705FF10BD30B504460D46A9
:1026400029462046FFF743FEFFF728FE0A48008888
:102650000149891C088030BDFE1F006C8A000020E3
:10266000820000208C0000208E00002084000020CA
:1026700086000020880000207E00002030B5034640
:102680000C461546FE48008849F24131884212D175
:10269000FC480088FC4908801812891C0880D8B2C0
:1026A0000880FA480088891E08802012891C08804A
:1026B000E0B2088012E0F6480078012804D1F5481D
:1026C0000088401EC01A83B21946EE480088FFF702
:1026D000D5FD2146ED480088FFF7D0FDEE48008883
:1026E000E9490880881C058030BD2DE9FF4F04466C
:1026F0000D4616461F46A019401E86B2E819401E18
:1027000087B2DF48008849F2413188421AD1DD485A
:102710000088DD4908802012891C0880E0B208800A
:1027200030120880F0B20880D8480088891E0880DE
:102730002812891C0880E8B2088038120880F8B294
:10274000088032E0D248007801280ED1A846B94668
:10275000D0480088801B401E1FFA80FACD480088B0
:10276000001B401E1FFA80FB03E0A046B146AA46AC
:10277000BB465020039051200290522001905320DC
:10278000009041460398FFF779FD49460298FFF70C
:1027900075FD51460198FFF771FD59460098FFF706
:1027A0006DFD29462046FFF792FDBDE8FF8F00B57D
:1027B0009FB00121782003F073F80121084603F04F
:1027C000A7F84FF480601D9001208DF8780000205C
:1027D0008DF87A0002208DF8790001208DF87B00B9
:1027E0001DA9AE4802F0BEFD4CF233701D900220D0
:1027F0008DF8780000208DF87A0003208DF879009C
:1028000001208DF87B001DA9A54802F0ABFD4FF615
:1028100080701D9002208DF8780000208DF87A00DD
:1028200003208DF8790001208DF87B001DA99D48BB
:1028300002F098FD04201D9002208DF87800002001
:102840008DF87A0003208DF8790001208DF87B0047
:102850001DA9954802F086FD4FF480501D9002207E
:102860008DF8780000208DF87A0003208DF879002B
:1028700001208DF87B001DA98B4802F073FD0C220E
:102880000021874802F0F9FD0C220121844802F062
:10289000F4FD0C220421824802F0EFFD0C220521F8
:1028A0007F4802F0EAFD0C2208217D4802F0E5FD98
:1028B0000C2209217A4802F0E0FD0C220A21784816
:1028C00002F0DBFD0C220E21754802F0D6FD0C2231
:1028D0000F21734802F0D1FD0C220721714802F04C
:1028E000CCFD0C2208216F4802F0C7FD0C22092103
:1028F0006C4802F0C2FD0C220A216A4802F0BDFDBC
:102900000C220B21674802F0B8FD0C2211466548E5
:1029100002F0B3FD0C220D21624802F0AEFD0C2244
:102920000E21604802F0A9FD0C220F215D4802F043
:10293000A4FD0C2202215C4802F09FFD0C221146EE
:10294000594802F09AFD0F200790002008903C2083
:10295000099000200A900B900C900D900920009097
:102960000020019008200290002003900490059020
:10297000069006200E9000200F90109010201190CD
:102980000020129014901390159016904FF48050E0
:102990001790002018904FF48040199000201A9052
:1029A00007A81B90CDF870D00EA802F08CF9012179
:1029B000062002F013FA3220FFF733F91FB000BDF2
:1029C00070B504460025002632480088374909883A
:1029D00000FB01F600210846FFF779FCFFF75EFCDB
:1029E00000BF03E02848801C04806D1CB542F9D369
:1029F00070BD08B500200090FFF7D9FE012100202E
:102A0000FFF73CFC3220FFF70CF90020FFF73BFCFE
:102A10001B49088008460088FF280ADB0846008812
:102A20004FF6FF71884204D015480088B0F5134F67
:102A30001DD1D32014490880881C008810490880C3
:102A40001148801C008808800F48801C008808807E
:102A5000084600884FF6FF7101EA00200849088007
:102A60000948801C008809880843054908800448F3
:102A7000008849F24131884237D10D48006819E099
:102A8000820000208C000020FE1F006C8E000020C1
:102A900084000020860000208A00002000140240EC
:102AA000000C024000100240001802408800002084
:102AB0001C0100A020F00F004FF02041C1F81C01C4
:102AC0000846D0F81C0120F47060C1F81C010846CB
:102AD000D0F81C0140F00300C1F81C010846D0F8F2
:102AE0001C0140F40070C1F81C01FE48008849F246
:102AF000283188427ED141F28F01EC20FFF7BEFBE6
:102B000041F23421EF20FFF7B9FB4FF4807101202F
:102B1000FFF7B4FB4FF4E0610220FFF7AFFB41F297
:102B200030010320FFF7AAFB00210420FFF7A6FBDA
:102B300040F202210820FFF7A1FB00210920FFF746
:102B40009DFB00210A20FFF799FB01210C20FFF7D4
:102B500095FB00210D20FFF791FB00210F20FFF7CF
:102B60008DFB00211020FFF789FB07211120FFF7C3
:102B700085FB00211220FFF781FB00211320FFF7C6
:102B80007DFB01210720FFF779FB3220FFF749F891
:102B900041F290411020FFF771FB40F227211120F4
:102BA000FFF76CFB3220FFF73CF88A211220FFF779
:102BB00065FB3220FFF735F84FF4D0511320FFF7B3
:102BC0005DFB06212920FFF759FB0D212B20FFF784
:102BD00055FB3220FFF725F800212020FFF74EFBA0
:102BE00000212120FFF74AFB3220FFF71AF80021CD
:102BF000302000E074E0FFF741FB40F20461312037
:102C0000FFF73CFB40F205313220FFF737FB002194
:102C10003520FFF733FB40F609413620FFF72EFB46
:102C20004FF401713720FFF729FB40F201313820C2
:102C3000FFF724FB40F207713920FFF71FFB00214B
:102C40003C20FFF71BFB40F60A213D20FFF716FB57
:102C50003220FEF7E6FF00215020FFF70FFBEF21A7
:102C60005120FFF70BFB00215220FFF707FB40F23A
:102C70003F115320FFF702FB4FF427416020FFF77D
:102C8000FDFA01216120FFF7F9FA00216A20FFF720
:102C9000F5FA00218020FFF7F1FA00218120FFF7EB
:102CA000EDFA00218220FFF7E9FA00218320FFF7E7
:102CB000E5FA00218420FFF7E1FA00218520FFF7E3
:102CC000DDFA10219020FFF7D9FA4FF4C06192206D
:102CD000FFF7D4FA40F233110720FFF7CFFAC2E131
:102CE0008048008849F2253188427DD147F6F001BD
:102CF000E520FFF7C3FA4FF480710120FFF7BEFA19
:102D00004FF4E0610220FFF7B9FA41F230010320ED
:102D1000FFF7B4FA00210420FFF7B0FA40F20221D5
:102D20000820FFF7ABFA00210920FFF7A7FA0021DE
:102D30000A20FFF7A3FA00210C20FFF79FFA0021D9
:102D40000D20FFF79BFA00210F20FFF797FA0021D3
:102D50001020FFF793FA07211120FFF78FFA0021C7
:102D60001220FFF78BFA00211320FFF787FA0021CA
:102D70000720FFF783FA41F290611020FFF77EFAF7
:102D800040F227211120FFF779FA9D211220FFF749
:102D900075FA4FF4C8511320FFF770FA2521292046
:102DA000FFF76CFA0D212B20FFF768FA072130207E
:102DB000FFF764FA40F203313120FFF75FFA032195
:102DC0003220FFF75BFA40F206213520FFF756FA72
:102DD00008213620FFF752FA40F206413720FFF76C
:102DE0004DFA4FF4417100E058E03820FFF746FA01
:102DF00007213920FFF742FA40F202613C20FFF739
:102E00003DFA08213D20FFF739FA00215020FFF755
:102E100035FAEF215120FFF731FA00215220FFF758
:102E20002DFA40F23F115320FFF728FA4FF42741C3
:102E30006020FFF723FA01216120FFF71FFA00212C
:102E40006A20FFF71BFA00218020FFF717FA002104
:102E50008120FFF713FA00218220FFF70FFA0021EB
:102E60008320FFF70BFA00218420FFF707FA0021E7
:102E70008520FFF703FA10219020FFF7FFF94FF4A8
:102E8000C0619220FFF7FAF940F233110720FFF7F3
:102E9000F5F922210020FFF7F1F9E4E0114800885C
:102EA00049F241318842F8D1CF200F4908800020F3
:102EB000891C0880C120088030200880ED20891EF0
:102EC00008806420891C0880032008801220088064
:102ED00081200880E820891E08808520891C0880C0
:102EE000102003E082000020FE1F006C08807A2082
:102EF0000880CB20891E08803920891C08802C205E
:102F00000880002008803420088002200880F720F4
:102F1000891E08802020891C0880EA20891E0880DC
:102F20000020891C08800880C020891E08801B2082
:102F3000891C0880C120891E08800120891C088006
:102F4000C520891E08803020891C08800880C72081
:102F5000891E0880B720891C08803620891E0880B9
:102F60004820891C08803A20891E08805520891C29
:102F70000880B120891E08800020891C08801A2042
:102F80000880B620891E08800A20891C0880A2209B
:102F90000880F220891E08800020891C08802620D5
:102FA000891E08800120891C0880E020891E088075
:102FB0000F20891C08802A200880282008800820EB
:102FC00008800E2008800820088054200880A9204E
:102FD0000880432008800A2008800F2008800020F5
:102FE0000880088008800880E120891E0880002071
:102FF000891C088015200880172008800720088079
:1030000011200880062008802B2008805620088088
:103010003C20088005200880102008800F200880B0
:103020003F20088008800F2008802B20891E088000
:103030000020891C08800880012008803F2008802B
:103040002A20891E08800020891C088008800880AA
:10305000EF2008801120891E08807820FEF7E1FD0E
:103060002920FD4908800020FFF799FA0020FB493C
:1030700008604FF6FF70FFF7A3FC08BD2DE9F04F85
:1030800005460E4617469846DDF824A04FF0000B83
:10309000781B401C1FFA80FB344614E0214628466A
:1030A000FFF715F9FFF7FAF84FF0000907E0EA48D3
:1030B000801CA0F800A009F101001FFA80F9D94591
:1030C000F5DB601C84B24445E8DDBDE8F08F2DE9F6
:1030D000F84F07460D4690469946DDF828B0A8EB14
:1030E0000700401C80B20090A9EB0500401C1FFAAD
:1030F00080FA002416E0281981B23846FFF7E7F875
:10310000FFF7CCF8002608E004FB0A603BF810004B
:10311000D149891C0880701C86B200988642F3DB76
:10312000601C84B25445E6DBBDE8F88F2DE9FF4F03
:1031300084B081468A460020039002900698A0EB56
:1031400009050798A0EB0A06CDF80490CDF800A079
:10315000002D01DD012705E00DB9002702E04FF049
:10316000FF376D42002E02DD4FF0010806E016B970
:103170004FF0000802E04FF0FF387642B54201DD23
:103180002C4600E034464FF0000B21E0009A91B24B
:10319000019A90B2FFF751FA0398284403900298DD
:1031A000304402900398A04205DD0398001B039071
:1031B0000198384401900298A04205DD0298001B56
:1031C00002900098404400900BF101001FFA80FB30
:1031D000601C8345DADD08B0BDE8F08FF0B5044629
:1031E0000D4616461F462B46324629462046FFF717
:1031F0009DFF3B46224629462046FFF797FF3B4668
:10320000324639462046FFF791FF3B463246294673
:103210003046FFF78BFFF0BD2DE9F04306460F4621
:103220009046002445460320A0EB48093CE07A1B69
:1032300091B2321990B2FFF700FA3A1B91B27219AB
:1032400090B2FFF7FAF93A1991B2721990B2FFF7FA
:10325000F4F97A1991B2321990B2FFF7EEF97A19AE
:1032600091B2321B90B2FFF7E8F93A1991B2721B92
:1032700090B2FFF7E2F97A1B91B2321B90B2FFF7DE
:10328000DCF93A1B91B2721B90B2FFF7D6F9641CBD
:10329000B9F1000F03DAA000801D814404E0601B37
:1032A00080000A3081446D1EAC42C0DDBDE8F08371
:1032B0002DE9F84F81460E4617461C4600960C2C09
:1032C00001D198460AE0102C01D1A04606E0182C46
:1032D00002D14FF0240801E0BDE8F88FA7F12000EB
:1032E000C7B2002553E00C2C07D107EB47005C491F
:1032F00001EB800010F805A012E0102C05D1594810
:1033000000EB071010F805A00AE0182C07D107EB16
:10331000C700554901EB800010F805A000E0DBE78D
:103320004FF0000B2DE00AF0800030B14F480288CA
:1033300031464846FFF7A2F905E04D48028831467C
:103340004846FFF79BF94FEA4A604FEA106A701C43
:1033500086B248480088864200DBBDE70098301AF4
:10336000A0420AD1009E09F101001FFA80F94248EB
:103370000088814500DBAFE706E00BF1010000F0BB
:10338000FF0BBBF1080FCEDB00BF681CC5B2454583
:10339000A9DB00BFA0E710B50246012000E05043C2
:1033A0000B00A1F10104E1B2F9D110BD2DE9FF4FED
:1033B00081B0064691461F46DDE90E4A0020009086
:1033C000002544E0781B401EC1B20A20FFF7E3FF4E
:1033D000B9FBF0F00A21B0FBF1F201FB12080098F2
:1033E00020BB781EA84221DDB8F1000F1CD1BAF134
:1033F000000F0CD0A34604EBDB71491001FB056103
:1034000088B2234630220299FFF752FF0BE0A34611
:1034100004EBDB71491001FB056188B223462022D1
:103420000299FFF745FF10E001200090A34604EB4E
:10343000DB71491001FB056188B208F13001CAB2A5
:1034400023460299FFF734FF00BF681CC5B2BD4296
:10345000B8DB05B0BDE8F08FFE1F006CA8824242C9
:10346000D8B300084CB800083CBE00087E0000201D
:103470008000002088000020860000202DE9FF4FFA
:1034800082B004460D461646DDE91189109F30488A
:10349000B0F800A02F48B0F800B02D48A0F8008088
:1034A0002C48A0F800900F98CDE900073246294635
:1034B0002046059BFFF77AFF2548A0F800A0254885
:1034C000A0F800B006B0BDE8F08FF0B506460F4694
:1034D00015461C4611E022782B4639463046FFF748
:1034E000E7FE284605EBD07106EB61018EB21A4863
:1034F0000088864200DB06E0641C20787E2802DC1F
:1035000020782028E7DA00BFF0BD2DE9F04F04460F
:103510000D4616461F46DDE909890D48B0F800A0A2
:103520000C48B0F800B00A48A0F800800948A0F89C
:1035300000903B46324629462046FFF7C6FF044826
:10354000A0F800A00348A0F800B0BDE8F08F00008C
:103550007E00002080000020860000201FB503228E
:103560000021012003F05BFC2F490860012110209D
:1035700002F0DFF90020ADF80C00ADF8060044F6CB
:103580001F6002905320ADF8040001A9274802F003
:10359000D2FB36208DF8000001208DF803000620B4
:1035A0008DF8010000208DF80200684601F07DFAD8
:1035B000012211461D4803F05FF800211B4802F06C
:1035C00043FC0121194803F07FF80121174803F05B
:1035D00067F81FBD08B50121144803F064F890B1E5
:1035E00069461148006803F0FFFF009838B14FF0BA
:1035F00080500F490860BFF34F8FBFF36F8F0121D9
:103600000A4803F061F808BD0848008840F001004E
:10361000064908807047054800884FF6FE7108404B
:103620000249088070470000900000200010004010
:1036300004ED00E0B0EE401ADFEDD54AB0EE642AAA
:10364000DFEDD34AF0EE643ADFEDD14AB0EE640A22
:10365000DFEDCF4AF0EE642ADFEDCD4AB0EE643AFA
:10366000DFEDCB4AB0EE644A002001EE900AB0EEE6
:10367000412AF0EE603A73EEC24AC648C0ED004AF5
:1036800090ED005AC448008804EE900AF8EE644AAF
:10369000B4EEE45AF1EE10FA0EDCBE4890ED005A9A
:1036A000BD480088404204EE900AF8EEE44AB4EEC9
:1036B000E45AF1EE10FA03D2002001EE900A02E083
:1036C000012001EE900AB548D0ED004AB14890EDD6
:1036D000005A64EE854AF0EE642AB148D0ED004A03
:1036E000AC4890ED005A74EE854AAD48C0ED004AF2
:1036F000D0ED004A9FEDAB5AF4EEC54AF1EE10FA58
:1037000004DDDFEDA84AC0ED004A0DE0A448D0ED8D
:10371000004A9FEDA55AF4EEC54AF1EE10FA03D225
:10372000DFEDA14AC0ED004A9C48D0ED004A9FED74
:103730009F5A64EE854A9E4890ED005AC4EE855A21
:103740009748D0ED004A65EEA44AB0EE643A93483B
:10375000D0ED004A974890ED005A64EE854ADFEDBF
:10376000935A84EEA55A8B48D0ED004A9248D0ED8A
:10377000005A74EEE54A65EE244AB0EE644AF8EE6B
:10378000614A23EE245A8D48D0ED005AF0EE624A89
:1037900045EE254A74EE844AB0EE640A7D48D0EDC9
:1037A000004A8548C0ED004A7047B0EE401ADFED90
:1037B000784AB0EE642ADFED764AF0EE643ADFED47
:1037C000744AB0EE640ADFED724AF0EE642ADFED6F
:1037D000704AB0EE643ADFED6E4AB0EE644A002003
:1037E00001EE900AB0EE412AF0EE603A73EEC24A62
:1037F0007348C0ED004A90ED005A6748008804EE17
:10380000900AF8EE644AB4EEE45AF1EE10FA0EDCD7
:10381000604890ED005A60480088404204EE900AEB
:10382000F8EEE44AB4EEE45AF1EE10FA03D20020C6
:1038300001EE900A02E0012001EE900A6148D0ED0D
:10384000004A5F4890ED005A64EE854AF0EE642A23
:103850005D48D0ED004A5A4890ED005A74EE854A12
:103860005948C0ED004AD0ED004A9FED4E5AF4EEA3
:10387000C54AF1EE10FA03DDDFED4A4AC0ED004A19
:103880005148D0ED004A9FED485AF4EEC54AF1EE9A
:1038900010FA03D2DFED444AC0ED004A4948D0EDAA
:1038A000004A9FED425A64EE854A484890ED005A1E
:1038B000C4EE855A4448D0ED004A65EEA44AB0EE05
:1038C000643A4048D0ED004A414890ED005A64EE19
:1038D000854ADFED365A84EEA55A3948D0ED004AC4
:1038E0003C48D0ED005A74EEE54A65EE244AB0EE4D
:1038F000644AF8EE614A23EE245A3048D0ED005A6B
:10390000F0EE624A45EE254A74EE844AB0EE640A4F
:103910002B48D0ED004A2F48C0ED004A704770B5E3
:103920002DED028BB0EE408AF0EE608A0024002577
:10393000B6EE000A28EE000ABCEEC00A10EE100A2D
:1039400000F57A7084B2B6EE000A28EE800ABCEE6A
:10395000C00A10EE100A00F57A7085B201212046E7
:10396000FDF743FF01212846FDF73FFFBDEC028B29
:1039700070BD012806D0022805D0032804D00428F1
:1039800004D102E002E001E000E000BF00BF7047A8
:1039900000000000AC00002094000020A0000020E7
:1039A000B400002000007A4400007AC40AD7A33C87
:1039B000A4000020A8000020B000002098000020F3
:1039C000C4000020B8000020CC000020BC00002073
:1039D000C0000020C80000202DE9FC4105460E462D
:1039E0002F46072F2FD2DFE807F0040A10161C22FB
:1039F0002800BA4C0121084601F052FF23E0B84CE0
:103A00000121022001F04CFF1DE0B64C01210420F1
:103A100001F046FF17E0B44C0121082001F040FFFF
:103A200011E0B24C0121102001F03AFF0BE0B04C44
:103A30000121202001F034FF05E0AE4C012140209F
:103A400001F02EFF00BF00BF01208DF80400002010
:103A50008DF80600009601208DF8070003208DF8F0
:103A60000500B1B2204601F0F9FC6946204601F09C
:103A700079FCBDE8FC812DE9FC4705460E4617465A
:103A8000B946A846B8F1070F2FD2DFE808F0040ABC
:103A900010161C222800914C0121084601F000FF5D
:103AA00023E08F4C0121022001F0FAFE1DE08D4C35
:103AB0000121042001F0F4FE17E08B4C01210820C5
:103AC00001F0EEFE11E0894C0121102001F0E8FE2A
:103AD0000BE0874C0121202001F0E2FE05E0854C3F
:103AE0000121402001F0DCFE00BF00BF00208DF866
:103AF00004000096B9F1000F03D001208DF80700F3
:103B000002E002208DF8070003208DF805006946C9
:103B1000204601F027FCBDE8FC872DE9FE4F8146D9
:103B20000F4616469846DDF830A02EB100223946E1
:103B30004846FFF7A0FF04E0012239464846FFF758
:103B40009AFF0121880301F005FFB7F5807F63D05C
:103B500012DC102F44D008DC012F25D0022F2AD0F0
:103B6000042F2FD0082F25D133E0202F3FD0402F16
:103B700044D0802FF7D148E0B7F5805F6CD009DCE6
:103B8000B7F5007F50D0B7F5806F55D0B7F5006F0F
:103B9000E9D159E0B7F5005F66D0B7F5804F6BD03B
:103BA000B7F5004F78D16FE00021484601F0DDFF06
:103BB0000124062570E00121484601F0D6FF0224C9
:103BC000072569E00221484601F0CFFF04240825BB
:103BD00062E00321484601F0C8FF082409255BE0A4
:103BE0000421484601F0C1FF10240A2554E00521B4
:103BF000484601F0BAFF202417254DE0062148462B
:103C000001F0B3FF4024172546E00721484601F0A4
:103C1000ACFF802417253FE00821484601F0A5FFAE
:103C20004FF48074172537E00921484601F09DFFC5
:103C30004FF4007417252FE00A21484601F095FF44
:103C40004FF48064282527E00B21484601F08DFFC2
:103C50004FF4006428251FE00C21484601F085FF41
:103C60004FF48054282517E00D21484601F07DFFD0
:103C70004FF4005428250FE00E21484601F075FF4F
:103C80004FF48044282507E00F21484601F06DFFDE
:103C90004FF40044282500BF00BF019401208DF897
:103CA0000A0000208DF808001EB108208DF80900D8
:103CB00002E00C208DF8090001A800F06FFF8DF8DC
:103CC000005001208DF803008DF801808DF802A0CE
:103CD000684600F0EAFEBDE8FE8F000000000240EA
:103CE0000004024000080240000C024000100240A4
:103CF000001402400018024070B58AB004460D4618
:103D000016460121102001F0CBFD03220521924827
:103D100001F0B3FB032206218F4801F0AEFB022025
:103D20008DF8240000208DF82600602008900120E6
:103D30008DF8270003208DF8250008A9864801F09A
:103D400011FB0121080401F005FE844804800020D5
:103D5000ADF81C00ADF81600601E0690681E80B21B
:103D6000ADF8140005A97E4801F0E5FF6020ADF82C
:103D700000000020ADF80C000120ADF80200029612
:103D80006946774802F06CF86946754802F0A1F878
:103D90000121734802F0F1F90121714802F036F86F
:103DA00001216F4802F050F80AB070BD70B58AB0BA
:103DB00004460D4616460121022001F071FD09223C
:103DC0000E21684801F059FB09220F21654801F0D6
:103DD00054FB02208DF8240000208DF826004FF4BB
:103DE0004040089001208DF8270003208DF8250021
:103DF00008A95C4801F0B6FA0121402001F099FDC4
:103E0000594804800020ADF81C00ADF81600601E73
:103E10000690681E80B2ADF8140005A9534801F061
:103E20008AFF6020ADF800000020ADF80C000120F2
:103E3000ADF80200029669464C4802F011F8694656
:103E40004A4802F00DF80121484802F096F9012194
:103E5000464801F0DBFF0121444801F0F5FF0AB0BC
:103E600070BD70B505460C4600263C480088401ED3
:103E70006843642190FBF1F086B2012C04D13146F5
:103E8000374802F046F905E0022C03D131463448A8
:103E900002F041F970BD70B505460C460026324867
:103EA0000088401E6843642190FBF1F086B2012C2B
:103EB00004D131462D4802F02CF905E0022C03D143
:103EC00031462A4802F027F970BD70B504460D4608
:103ED0001646611E224801F079FF204804802EB169
:103EE000681E81B200221E4801F062FF70BD70B5ED
:103EF00004460D461646611E1C4801F067FF1A482D
:103F000004802EB1681E81B20022184801F050FFD3
:103F100070BD70B505460C46012C04D129461048E9
:103F200002F0F7F805E0022C03D129460C4802F014
:103F3000F2F870BD70B505460C46012C04D1294637
:103F40000A4802F0E6F805E0022C03D129460748AA
:103F500002F0E1F870BD000000100240D000002027
:103F60000040014000040240D20000200018004040
:103F700000B585B00121022001F092FC012104204E
:103F800001F08EFC01208DF80C0000208DF80E0051
:103F90002020029000208DF80F0003208DF80D00E6
:103FA00002A9F84801F0DEF94020029002A9F54884
:103FB00001F0D8F98020029002A9F24801F0D2F96C
:103FC0004FF48070029002A9EE4801F0CBF94FF453
:103FD0000070029002A9EB4801F0C4F901218803A6
:103FE00001F0B8FC00208DF80C0010200290022097
:103FF0008DF80F0002A9E34801F0B4F90421012073
:1040000001F0B3FD1020009001208DF80600002083
:104010008DF8040008208DF80500684600F0BEFD0C
:104020000A208DF8100001208DF8130005208DF86E
:10403000110000208DF8120004A800F036FDD248CF
:10404000006820F01000D0490860D048006820F0D7
:10405000FF00CE4908600846C06820F0FF00C86035
:104060000846C06840F0AA00C8600846406940F0B1
:10407000FF00486105B000BD70B50025FFF778FF6F
:1040800000F024FA8021122000F029FB08B1012061
:1040900070BD3220FDF7C5FD0B2000F03FFB04464C
:1040A000732C01D00220F3E70A2000F037FB04460E
:1040B000762C01D00220EBE700250DE0B44A02EB9C
:1040C00045025178B24A12F8150000F008FB0220B0
:1040D000FDF7A7FD681C85B2A82DEFD30020D7E718
:1040E00010B5102000F0C0FD20B3AA48007868B9D0
:1040F0002020A4491A310880C000891E0880088049
:10410000202008800120A349087010E0A148007811
:1041100001280CD100029B491A3108809A48006896
:1041200020F010009849086002209A490870102079
:1041300000F0A5FD10BD2DE9F0474FF0000A002466
:10414000002500269348007802287DD100210846EA
:10415000FEF7BDF8FEF7A2F880208A491A310880E0
:1041600040200880C0000880891E0880891C0880C3
:104170004020891E0880C000088000BF57E000244E
:1041800050E04FF400707F491A3108807F48006981
:10419000C6B24815891E08807F480078864201DA39
:1041A000002600E0FF260A2C23DDB4F59B7F20DAF1
:1041B0000A2D1EDDE62D1CDADEB97848008AA04201
:1041C00002DA7648048104827448408AA84202DAFE
:1041D0007248458145827148808AA84202DD6F4855
:1041E000858185826D48C08AA04202DD6B48C4810A
:1041F000C4824FF4007063491A310880891E088018
:104200004FF6FF7000EA062606F478474FEAE629E3
:10421000761106F4FC6807EB090040446049088009
:10422000601C84B2B4F5A07FABDB681C85B2F02DB6
:10423000A5DB4FF4007053491A310880891E0880AD
:1042400080200880002000E009E0524908704E48B4
:10425000006840F010004C4908604FF0010A5046D9
:10426000BDE8F0872DE9F0410446E7250026002748
:10427000012C06D0022C08D0032C0AD0042C10D11B
:104280000BE0E5255A265C270BE0E525582660273C
:1042900007E0E52584264C2703E0E5259626402700
:1042A00000BF00BF2946132000F019FA3146012053
:1042B00000F015FA3946022000F011FABDE8F0814D
:1042C0002DE9F0410446802522265E2734B1012CD9
:1042D00008D0032C0AD0042C10D10BE04025112665
:1042E0002F270BE066251B264B2707E0992528265C
:1042F000712703E0C02533268D2700BF00BF294664
:104300004F2000F0ECF92946502000F0E8F9002198
:10431000512000F0E4F93146522000F0E0F939462E
:10432000532000F0DCF92946542000F0D8F99E21F2
:10433000582000F0D4F9BDE8F08170B5044600259E
:1043400034B1012C06D0032C06D0042C08D105E092
:10435000B02505E0982503E0182501E0302500BFD1
:1043600000BF2946552000F0BAF970BD70B504466B
:104370004025BCB1012C17D0032C17D0042C19D127
:1043800016E0000000040240003C01400000024032
:1043900098CB0008D4000020D5000020EC020020BB
:1043A0000020006C302505E0382503E0502501E0B1
:1043B000602500BF00BF2946562000F090F970BD6F
:1043C0002DE9F04104460425C0268027072C1DD284
:1043D000DFE804F01C04080C1014180024258026C3
:1043E000802713E01425802680270FE01425C0269F
:1043F00080270BE014254026402707E0142580265F
:10440000C02703E01425A026402700BF00BF29468F
:104410003A2000F064F93146682000F060F939462E
:10442000672000F05CF9BDE8F0812DE9F047054612
:104430000E469046994605EB48001FFA80FA06EBB7
:10444000490087B2B7F5447F02DDA7F5447087B213
:10445000032000F063F9044604F0F0040AF00301BD
:10446000284661F39F0004432146032000F037F9FA
:10447000C5F38701192000F032F9CAF387011A2029
:1044800000F02DF9322000F049F9044604F0C00490
:1044900007F00701304661F3DF000443C6F3C701AC
:1044A000172000F01CF9C7F3C701182000F017F916
:1044B000BDE8F08710B500F064FAFFF73CFE20B1CC
:1044C00000F068FA0120FDF7BCFF10BD10B5012116
:1044D000042001F0E5F9A548006840F00500A34973
:1044E0000860A2480C300068A0490C3108609F4861
:1044F000001D00689D49091D0860081D006840F006
:104500000F00091D086010BD10B501209849086012
:104510009849C1F884023220FDF761FB00209449DC
:1045200008603220FDF75BFB00209249C1F884024D
:1045300010BD10B500208E4908603220FDF74FFBFA
:1045400001208C49C1F884023220FDF748FB01208C
:10455000874908603220FDF742FB10BD10B53220BC
:10456000FDF73DFB0120824908608249C1F88402C1
:104570003220FDF734FB00207D49091D0860322000
:10458000FDF72DFB00207B49C1F880023220FDF7AA
:1045900026FB10BD70B5044600261BE004F0800029
:1045A00018B101207249086002E0002070490860DB
:1045B0006006040E3220FDF712FB01206C49091D34
:1045C00008603220FDF70BFB00206A49C1F8840225
:1045D000701CC6B2082EE1DB6448006820F00300BE
:1045E0006249086061480C30006820F003005F49B0
:1045F0000C3108600846006840F001000860322075
:10460000FDF7EDFA01205A49091D08603220FDF737
:10461000E6FA5848D0F8000208B1012500E000256C
:1046200000205349091D08605048006820F003002D
:104630004E4908600846006840F0010008604B4899
:104640000C30006820F0030048490C31086028460F
:1046500070BD70B500244548006820F00300434950
:10466000086042480C30006820F003003F490C31DC
:1046700008600846006840F001000860082517E05F
:104680003220FDF7ACFA01203949091D08606006A7
:10469000040E3848D0F8000208B1601CC4B23220C1
:1046A000FDF79DFA00203249091D0860681EC5B259
:1046B000002DE5DC2D48006820F003002B49086040
:1046C0000846006840F00100086028480C30006887
:1046D00020F0030025490C310860204670BD70B5FC
:1046E00005460C460026FFF70FFF4220FFF752FF5A
:1046F00000B101266420FDF772FA2846FFF74AFF51
:1047000000B101266420FDF76AFA2046FFF742FF58
:1047100000B10126FFF70DFF304670BD70B50446AD
:104720000025FFF7F1FE4220FFF734FF6420FDF77C
:1047300056FA2046FFF72EFF6420FDF750FAFFF7E8
:10474000F8FE6420FDF74BFAFFF7DEFE4320FFF78B
:1047500021FF6420FDF743FAFFF77BFF0546FFF7D3
:10476000FDFEFFF7E6FE284670BD0000000802408F
:1047700080024142000041422DE9F04104460D46CD
:104780009046A01E86B20EE0A81E87B206E0424602
:1047900039463046FDF772FF781C87B2A81C874265
:1047A000F5DD701C86B2A01C8642EDDDBDE8F0810F
:1047B0002DE9F04104460D46904626460DE02F4671
:1047C00006E0424639463046FDF758FF781E87B26C
:1047D000E81EB842F5DB701E86B2A4F10A00B042B2
:1047E000EDDB26460FE0E81E87B206E0424639467A
:1047F0003046FDF743FF781E87B2A5F10A00B842A4
:10480000F4DB701E86B2E01EB042ECDBBDE8F08146
:104810002DE9F04104460D46904626460DE02F4610
:1048200006E0424639463046FDF728FF781E87B23B
:10483000E81EB842F5DB701C86B204F10A0086421D
:10484000EDDB26460FE0E81E87B206E04246394619
:104850003046FDF713FF781E87B2A5F10A00B84273
:10486000F4DB701C86B2E01C8642ECDBBDE8F08114
:104870002DE9F04104460D46904626460DE02F46B0
:1048800006E0424639463046FDF7F8FE781C87B20E
:10489000E81C8742F5DB701E86B2A4F10A00B04224
:1048A000EDDB26460FE0E81C87B206E042463946BB
:1048B0003046FDF7E3FE781C87B205F10A00874217
:1048C000F4DB701E86B2E01EB042ECDBBDE8F08186
:1048D0002DE9F04104460D46904626460DE02F4650
:1048E00006E0424639463046FDF7C8FE781C87B2DE
:1048F000E81C8742F5DB701C86B204F10A00864290
:10490000EDDB26460FE0E81C87B206E0424639465A
:104910003046FDF7B3FE781C87B205F10A008742E6
:10492000F4DB701C86B2E01C8642ECDBBDE8F08153
:104930002DE9F04105460E4614461F463A463146DB
:104940002846FFF719FF321991B22A1990B23A4658
:10495000FFF72EFF321991B22A1B90B23A46FFF7A9
:1049600057FF321B91B22A1990B23A46FFF780FFE7
:10497000321B91B22A1B90B23A46FFF7A9FFBDE85D
:10498000F0814FF6FF7044498882C8820020488237
:104990000882704770B50024002500263E49C98969
:1049A0003D4A1289881800EBD071C1F34F043A498F
:1049B0004989394A9289881800EBD071C1F34F05B3
:1049C000002C2CDDB4F5A07F29DA002D27DDF02D99
:1049D00025DA3148048045804FF478422946204644
:1049E000FFF7CAFE2C4A518910894FF47842FFF72D
:1049F000DFFE294A5189D0894FF47842FFF708FF3A
:104A0000254A918910894FF47842FFF731FF224AF5
:104A10009189D0894FF47842FFF75AFF012630463A
:104A200070BD1D48008837280EDB1B480088B0F594
:104A3000857F09DA184840880F2805DB164840882A
:104A4000E12801DC012070470020FCE7BE2013496B
:104A50004880E62008807820C880E62088803220C0
:104A60004881E6200881BE20C881A0208881782066
:104A70004882A02008823220C882A0208882BE20DE
:104A800048835A2008837820C8835A20888332209C
:104A900048845A2008847047EC0200200403002058
:104AA00032490143324A1160704770B5002100233A
:104AB0000F22C4781CB32E4C246804F4E064C4F5BF
:104AC000E064C4F30721C1F10404E3B20A4144786D
:104AD0009C40E1B28478144021430C07210E254C00
:104AE00005786155047804F01F050124AC40057871
:104AF0006D11AD0005F1E025C5F8004109E004782D
:104B000004F01F050124AC401B4D0678761145F8D2
:104B1000264070BD194A0A400243154B1B1F1A60FC
:104B2000704739B1124A121D12680243104B1B1D07
:104B30001A6006E00E4A121D126882430C4B1B1DC0
:104B40001A607047042808D14FF0E021096941F04C
:104B500004014FF0E022116107E04FF0E021096904
:104B600021F004014FF0E022116170470000FA05C6
:104B70000CED00E000E400E080E100E080FFFF1FBA
:104B8000002041490860091D0860091D0860091DD1
:104B900008603E483C4914310860704700213A499A
:104BA0008279002A3AD00A46126803689A430B4673
:104BB0001A600A1D126803689A430B1D1A60027975
:104BC00011440A6803681A430A602F4A08321268BF
:104BD00003689A432C4B08331A601A1D1268036845
:104BE0009A43294B0C331A604279102A0ED11A1FAE
:104BF000126803681A43244B08331A601A1D12689E
:104C000003681A43204B0C331A600DE01E494279A9
:104C100011440A6803681A430A6005E002791144E6
:104C20000A6803689A430A607047002101600171B5
:104C30000C214171002181717047134910310968BD
:104C40000143114A103211607047014600200E4A9C
:104C5000143212680A400AB1012000E000207047B7
:104C6000094914310860704701460020064A143291
:104C700012680A400AB1012000E000207047024992
:104C80001431086070470000003C0140FFFF7F00C6
:104C900030B943F2DB028100A1F1C0410A6005E0B6
:104CA00043F2D2028100A1F1C0410A606FF070426C
:104CB000411C8900A1F1C0410A608100A1F1C041FD
:104CC000C1F804217047D0E901121143C2681143B1
:104CD000026911434269114382691143C269114358
:104CE000026A1143426A1143826A1143C26A114344
:104CF000026B114302689200A2F1C0421160816808
:104D000008290BD101688900A1F1C041096841F06F
:104D1000400201688900A1F1C0410A60416B096845
:104D2000426B526841EA0211426B926841EA0221E9
:104D3000426B928941EA0241426B128A41EA025176
:104D4000426B127D41EA0261426B92691143026833
:104D5000521C9200A2F1C0421160C16AB1F5804FAD
:104D60001BD1816B0968826B526841EA0211826B28
:104D7000926841EA0221826B128A41EA0251826BF7
:104D8000127D41EA0261826B9269114302689200CE
:104D9000A2F1C042C2F8041107E06FF0704201684E
:104DA0008900A1F1C041C1F80421704700210160D0
:104DB0000221416000218160C16001614161816126
:104DC000C16101624FF4805141624900816200215A
:104DD000C1620163F84941638163704751B1820048
:104DE000A2F1C042126842F001038200A2F1C04267
:104DF000136009E08200A2F1C0421268EF4B1A4032
:104E00008300A3F1C0431A60704710280AD118210B
:104E10004FF020421166402151664FF0FC319166FF
:104E2000D16610E01821E64A116040214FF020427F
:104E3000C2F884104FF0FC31E14A083211604FF0A3
:104E40002042C2F88C10704730B5002100220023A8
:104E5000446844F0080485682C43C5682C43056900
:104E60002C43456944EA4524856944EA4531C469CF
:104E70002468C5696D6844EA0524C5692D8944EA3A
:104E80000544C5692D7B44EA0562046A2468056A05
:104E90006D6844EA0524056A2D8944EA0544056ADB
:104EA0002D7B44EA05630468102C05D14FF02044A3
:104EB0002166A266E36608E0C14C21604FF0204401
:104EC000C4F88820BE4C0C34236030BD1021016032
:104ED000002141608160C160016141618161FC210B
:104EE000C2691160C2695160C2699160C269D160D2
:104EF000026A1160026A5160026A9160026AD160BE
:104F0000704799B1102808D14FF02042126E42F03C
:104F100004024FF020431A661DE0A94A126842F0CD
:104F200004024FF02043C3F8802014E0102809D178
:104F30004FF02042126EA14BDB1E1A404FF020436F
:104F40001A6608E09E4A12689C4BDB1E1A404FF01E
:104F50002043C3F88020704799B1102808D14FF042
:104F60002042126E42F040024FF020431A661DE0CC
:104F7000934A126842F040024FF02043C3F8802069
:104F800014E0102809D14FF02042126E8B4B3F3BAA
:104F90001A404FF020431A6608E0894A1268874B8E
:104FA0003F3B1A404FF02043C3F880207047014632
:104FB0000020102903D14FF02042506F02E0804AB8
:104FC00014321068704718207D4920310860002095
:104FD0000906C1F8A4004FF0FC3079492831086077
:104FE000091D0860091D08607047016841F0100143
:104FF000426841EA4221826841EA4231704A2032E5
:105000001160C1680968C268526841EA0221C26839
:10501000128941EA0241C268127B41EA0261684A90
:1050200028321160016909680269526841EA022167
:105030000269128941EA02410269127B41EA026176
:105040005F4A2C321160416909684269526841EA3D
:1050500002214269128941EA02414269127B41EA16
:1050600002614FF02042C2F8B01070470021016089
:1050700041608160FC21C2681160C2685160C268F1
:105080009160C268D1600269116002695160026971
:1050900091600269D1604269116042695160426960
:1050A00091604269D160704748B145492031096833
:1050B00041F004014FF02042C2F8A01009E040493D
:1050C000203109683D4AD21E11404FF02042C2F8FB
:1050D000A010704710B5F2B1102807D14FF020434F
:1050E0005B6E0B434FF02044636632E0B0F5807F87
:1050F00008D1334B1B1D1B680B434FF02044C4F8F1
:10510000843026E02E4B24331B680B434FF02044A1
:10511000C4F8A4301DE0102807D14FF020435B6E87
:105120008B434FF02044636613E0B0F5807F08D1D5
:10513000234B1B1D1B688B434FF02044C4F8843065
:1051400007E01F4B24331B688B434FF02044C4F807
:10515000A43010BD10B5024600200023102A03D150
:105160004FF02044636E09E0B2F5807F03D1144C08
:10517000241D236802E0124C2434236803EA01044E
:105180000CB1012000E0002010BD102807D14FF025
:105190002042526E8A434FF020435A6619E0B0F520
:1051A000807F0FD1064A121D12688A434FF02043B8
:1051B000C3F884200DE00000E8CC0008FEFF0F00DB
:1051C000800000A0234A12688A434FF02043C3F8AE
:1051D000A420704770B5024600200023002400255B
:1051E000102A03D14FF02046736E08E0B2F5807F9D
:1051F00003D1184E203E336801E0164E336803EAAF
:10520000010403EAD10514B10DB1012000E0002032
:1052100070BD102808D14FF02042526E22EAD10210
:105220004FF020435A6614E0B0F5807F09D1094A57
:10523000203A126822EAD1024FF02043C3F88420BA
:1052400007E0044A126822EAD1024FF02043C3F873
:10525000A4207047A40000A010B5044698488442DA
:1052600008D10121084600F086FB0021012000F052
:1052700082FB76E09348844208D10121022000F0AD
:105280007AFB0021022000F076FB6AE08E4884421F
:1052900008D10121042000F06EFB0021042000F061
:1052A0006AFB5EE08948844208D10121082000F0B1
:1052B00062FB0021082000F05EFB52E0844884423B
:1052C00008D10121102000F056FB0021102000F031
:1052D00052FB46E07F48844208D10121202000F0A3
:1052E0004AFB0021202000F046FB3AE07A48844245
:1052F00008D10121402000F03EFB0021402000F0B9
:105300003AFB2EE07548844208D10121802000F04C
:1053100032FB0021802000F02EFB22E07048844206
:1053200008D10121801500F026FB0021A01500F016
:1053300022FB16E06B48844208D10121401500F0A1
:105340001AFB0021601500F016FB0AE06648844253
:1053500007D10121001500F00EFB0021201500F0FF
:105360000AFB10BDF0B50A4600210023002400BF4F
:105370003DE0012505FA01F3156805EA03049C42A6
:1053800034D105684F000326BE40B543056015794A
:105390004E00B5400668354305601579012D02D0F1
:1053A0001579022D16D185684F000326BE40B543FE
:1053B000856055794E00B5408668354385604568FF
:1053C00001268E40B5434560456896798E40B6B259
:1053D00035434560C5684F000326BE40B543C560F0
:1053E000D5794E00B540C6683543C560491C1029C3
:1053F000BFD3F0BD4FF6FF71016000210171417113
:105400008171C171704708B54FF480320092009AE3
:105410000A430092009AC261C161009AC261C269E6
:105420000092C269009208BD0246002013690B4039
:105430000BB1012000E0002070470146086980B2EE
:1054400070470246002053690B400BB1012000E079
:10545000002070470146486980B270470183704759
:10546000418370470AB1018300E041837047416185
:10547000704742694A4042617047F0B500230024FA
:105480004D07ED0E02FA05F3CE1000F1200555F898
:1054900026504E07F70E0F26BE40B543CF1000F141
:1054A000200646F82750CE1000F1200555F826506A
:1054B00045EA0304CE1000F1200545F82640F0BD72
:1054C000000002400004024000080240000C0240BC
:1054D000001002400014024000180240001C02406C
:1054E000002002400024024000280240F9480068E1
:1054F00040F00100F74908600020F64908310860D3
:10550000F4480068F4490840F2490860F348091D6E
:105510000860F348EF4984310860F0481038091DED
:105520000860EC48006820F48020EA490860002008
:10553000E8490C310860E7498C3108607047002168
:10554000E44A921C117011460870704710B501466C
:105550000022002300204A11012A02D1DD4C2368D9
:1055600008E0022A03D1DB4C7034236802E0D94CF6
:105570007434236801F01F02012494401C400CB1D4
:10558000012000E0002010BD38B50020009000246C
:10559000002500BF3120FFF7D9FF05460098401CC9
:1055A00000900098B0F5A04F01D0002DF2D031202E
:1055B000FFF7CCFF08B1012400E00024204638BDED
:1055C00001460020C34A106820F0F80040EAC100FC
:1055D00010607047C349086070470021BD4A7032AF
:1055E00011701170012802D004280AD104E00121B1
:1055F000B84A7032117005E00521B64A7032117058
:1056000000E000BF00BF7047B7490860704770B541
:10561000049C41EA82150126C6EB530645EA06457D
:10562000054345EA0465AB4E361D356070BDAD4996
:1056300008667047820142EA0172A64B84331A6001
:105640007047A8498866704710B5830143EA016333
:1056500043EA02739F4C8834236010BDA149086758
:105660007047A049C864704702460020994B083330
:10567000186820F0EC6042EA01031843954B0833A8
:105680001860704702460020924B0833186820F0DB
:10569000784042EA010318438E4B08331860704784
:1056A000014600208B4A0832106820F003000843AE
:1056B0001060704787480830006800F00C007047A1
:1056C00001460020834A0832106820F0F0000843A9
:1056D00010607047014600207E4A0832106820F4AE
:1056E000E05008431060704701460020794A0832B4
:1056F000106820F4604040EAC10010607047F0B5C7
:10570000002100220024022500260223714F0837C1
:105710003F6807F00C0121B1042905D0082937D1D1
:1057200005E0724F076036E0714F076033E0694F64
:105730003F1D3F68C7F38056664F3F1D3F6807F027
:105740003F036EB16A4FB7FBF3F7DFF888C10CF186
:10575000040CDCF800C0CCF3881C07FB0CF40CE054
:10576000624FB7FBF3F7DFF86CC10CF1040CDCF807
:1057700000C0CCF3881C07FB0CF4564F3F1D3F685C
:10578000C7F301477F1C7D00B4FBF5F7076002E01B
:10579000564F076000BF00BF4E4F08373F6807F005
:1057A000F0010909534F7A5C0768D7404760494FB9
:1057B00008373F6807F4E051890A4E4F7A5C476822
:1057C000D7408760434F08373F6807F46041490B73
:1057D000484F7A5C4768D740C760F0BD002100F4AD
:1057E0004072B2F5407F0AD13A4A0832116821F47A
:1057F000F811414A02401143364A08321160354AD5
:1058000070321268C0F30B031A43324B70331A60C4
:10581000704735494439086070473349403908605A
:10582000704736490860704701460020294A8C328B
:10583000106820F01F004A1E1043264A8C32106068
:10584000704701460020234A8C32106820F4F8503B
:105850004A1E40EA02201F4A8C32106070470146FF
:1058600000201C4A8C32106820F44010084310605D
:10587000704701460020174A8C32106820F440001F
:1058800008431060704701460020124A8C321068AD
:1058900020F4403008431060704719490860704791
:1058A00039B10C4A3032126802430A4B30331A6065
:1058B00006E0084A303212688243064B30331A60E1
:1058C0007047F9B1034A343212680243014B343352
:1058D0001A601CE000380240FFFFF6EA1030002496
:1058E0000030002000004742800E47420024F400B0
:1058F00000127A00D6000020FFFCFF0F5C01474237
:10590000E01147428F4A126882438E4B1A607047FB
:1059100039B18C4A121D126802438A4B1B1D1A6052
:1059200006E0884A121D12688243864B1B1D1A60CE
:10593000704739B1834A0C3212680243814B0C33F1
:105940001A6006E07F4A0C32126882437D4B0C33AA
:105950001A60704739B17B4A103212680243794BA2
:1059600010331A6006E0774A103212688243754B92
:1059700010331A60704739B1724A243A12680243F0
:10598000704B243B1A6006E06E4A243A1268824348
:105990006C4B243B1A60704739B16A4A203A12684E
:1059A0000243684B203B1A6006E0664A203A1268C0
:1059B0008243644B203B1A60704739B1614A1C3AFC
:1059C000126802435F4B1C3B1A6006E05D4A1C3ABA
:1059D000126882435B4B1C3B1A60704739B1594ACD
:1059E000143A12680243574B143B1A6006E0554ABA
:1059F000143A12688243534B143B1A60704739B112
:105A0000504A103A126802434E4B103B1A6006E0AF
:105A10004C4A103A126882434A4B103B1A60704756
:105A200039B1484A1C3212680243464B1C331A6093
:105A300006E0444A1C3212688243424B1C331A600F
:105A4000704739B13F4A2032126802433D4B203340
:105A50001A6006E03B4A203212688243394B2033F9
:105A60001A60704739B1374A243212680243354B05
:105A700024331A6006E0334A243212688243314BE1
:105A800024331A60704739B12E4A2C32126802430F
:105A90002C4B2C331A6006E02A4A2C3212688243BF
:105AA000284B2C331A60704739B1264A30321268BD
:105AB0000243244B30331A6006E0224A3032126827
:105AC0008243204B30331A607047012808D11D49AA
:105AD0003C31096841F008011A4A3C32116007E084
